{
  "_format": "hh-sol-artifact-1",
  "contractName": "Factory",
  "sourceName": "contracts/Factory.sol",
  "abi": [
    {
      "inputs": [
        {
          "internalType": "address",
          "name": "_USDT",
          "type": "address"
        },
        {
          "internalType": "address",
          "name": "_DeployHandler",
          "type": "address"
        }
      ],
      "stateMutability": "nonpayable",
      "type": "constructor"
    },
    {
      "anonymous": false,
      "inputs": [
        {
          "indexed": true,
          "internalType": "address",
          "name": "previousOwner",
          "type": "address"
        },
        {
          "indexed": true,
          "internalType": "address",
          "name": "newOwner",
          "type": "address"
        }
      ],
      "name": "OwnershipTransferred",
      "type": "event"
    },
    {
      "anonymous": false,
      "inputs": [
        {
          "indexed": false,
          "internalType": "address",
          "name": "_Contract",
          "type": "address"
        },
        {
          "indexed": false,
          "internalType": "uint256",
          "name": "id",
          "type": "uint256"
        },
        {
          "indexed": false,
          "internalType": "uint256",
          "name": "year",
          "type": "uint256"
        },
        {
          "indexed": false,
          "internalType": "uint256",
          "name": "month",
          "type": "uint256"
        },
        {
          "indexed": false,
          "internalType": "uint256",
          "name": "day",
          "type": "uint256"
        }
      ],
      "name": "_cancelBooking",
      "type": "event"
    },
    {
      "anonymous": false,
      "inputs": [
        {
          "indexed": false,
          "internalType": "uint256",
          "name": "token",
          "type": "uint256"
        },
        {
          "indexed": false,
          "internalType": "address",
          "name": "user",
          "type": "address"
        }
      ],
      "name": "booked",
      "type": "event"
    },
    {
      "anonymous": false,
      "inputs": [
        {
          "indexed": false,
          "internalType": "uint256",
          "name": "token",
          "type": "uint256"
        },
        {
          "indexed": false,
          "internalType": "address",
          "name": "user",
          "type": "address"
        }
      ],
      "name": "mint",
      "type": "event"
    },
    {
      "anonymous": false,
      "inputs": [
        {
          "indexed": false,
          "internalType": "uint256",
          "name": "token",
          "type": "uint256"
        },
        {
          "indexed": false,
          "internalType": "address",
          "name": "user",
          "type": "address"
        }
      ],
      "name": "offerAccepted",
      "type": "event"
    },
    {
      "anonymous": false,
      "inputs": [
        {
          "indexed": false,
          "internalType": "uint256",
          "name": "token",
          "type": "uint256"
        },
        {
          "indexed": false,
          "internalType": "address",
          "name": "user",
          "type": "address"
        }
      ],
      "name": "offered",
      "type": "event"
    },
    {
      "inputs": [],
      "name": "AllUser",
      "outputs": [
        {
          "internalType": "address[]",
          "name": "",
          "type": "address[]"
        }
      ],
      "stateMutability": "view",
      "type": "function"
    },
    {
      "inputs": [
        {
          "internalType": "address",
          "name": "_Contract",
          "type": "address"
        },
        {
          "internalType": "uint256",
          "name": "_id",
          "type": "uint256"
        }
      ],
      "name": "BookedDate",
      "outputs": [
        {
          "internalType": "uint256",
          "name": "bookingTime_",
          "type": "uint256"
        },
        {
          "internalType": "uint256",
          "name": "bookedTime_",
          "type": "uint256"
        },
        {
          "internalType": "uint256",
          "name": "newYear_",
          "type": "uint256"
        }
      ],
      "stateMutability": "view",
      "type": "function"
    },
    {
      "inputs": [
        {
          "internalType": "address",
          "name": "_Contract",
          "type": "address"
        }
      ],
      "name": "BookedUserIDs",
      "outputs": [
        {
          "internalType": "uint256[]",
          "name": "_userIds",
          "type": "uint256[]"
        }
      ],
      "stateMutability": "view",
      "type": "function"
    },
    {
      "inputs": [],
      "name": "USDT",
      "outputs": [
        {
          "internalType": "contract IERC20",
          "name": "",
          "type": "address"
        }
      ],
      "stateMutability": "view",
      "type": "function"
    },
    {
      "inputs": [
        {
          "internalType": "address",
          "name": "_user",
          "type": "address"
        }
      ],
      "name": "UserAllContractAddress",
      "outputs": [
        {
          "internalType": "address[]",
          "name": "",
          "type": "address[]"
        }
      ],
      "stateMutability": "view",
      "type": "function"
    },
    {
      "inputs": [
        {
          "internalType": "address",
          "name": "_contract",
          "type": "address"
        },
        {
          "internalType": "address",
          "name": "_user",
          "type": "address"
        }
      ],
      "name": "UserIDs",
      "outputs": [
        {
          "internalType": "uint256[]",
          "name": "",
          "type": "uint256[]"
        }
      ],
      "stateMutability": "view",
      "type": "function"
    },
    {
      "inputs": [],
      "name": "_acceptOfferBefore",
      "outputs": [
        {
          "internalType": "uint256",
          "name": "",
          "type": "uint256"
        }
      ],
      "stateMutability": "view",
      "type": "function"
    },
    {
      "inputs": [
        {
          "internalType": "address",
          "name": "",
          "type": "address"
        },
        {
          "internalType": "uint256",
          "name": "",
          "type": "uint256"
        }
      ],
      "name": "_acceptedOffers",
      "outputs": [
        {
          "internalType": "bool",
          "name": "",
          "type": "bool"
        }
      ],
      "stateMutability": "view",
      "type": "function"
    },
    {
      "inputs": [
        {
          "internalType": "address",
          "name": "",
          "type": "address"
        },
        {
          "internalType": "uint256",
          "name": "",
          "type": "uint256"
        },
        {
          "internalType": "uint256",
          "name": "",
          "type": "uint256"
        },
        {
          "internalType": "uint256",
          "name": "",
          "type": "uint256"
        }
      ],
      "name": "_bookDateID",
      "outputs": [
        {
          "internalType": "uint256",
          "name": "",
          "type": "uint256"
        }
      ],
      "stateMutability": "view",
      "type": "function"
    },
    {
      "inputs": [],
      "name": "_bookingAfter",
      "outputs": [
        {
          "internalType": "uint256",
          "name": "",
          "type": "uint256"
        }
      ],
      "stateMutability": "view",
      "type": "function"
    },
    {
      "inputs": [],
      "name": "_bookingBefore",
      "outputs": [
        {
          "internalType": "uint256",
          "name": "",
          "type": "uint256"
        }
      ],
      "stateMutability": "view",
      "type": "function"
    },
    {
      "inputs": [],
      "name": "_cancelBefore",
      "outputs": [
        {
          "internalType": "uint256",
          "name": "",
          "type": "uint256"
        }
      ],
      "stateMutability": "view",
      "type": "function"
    },
    {
      "inputs": [
        {
          "internalType": "address",
          "name": "",
          "type": "address"
        },
        {
          "internalType": "uint256",
          "name": "",
          "type": "uint256"
        }
      ],
      "name": "_indexOfBookedDates",
      "outputs": [
        {
          "internalType": "uint256",
          "name": "",
          "type": "uint256"
        }
      ],
      "stateMutability": "view",
      "type": "function"
    },
    {
      "inputs": [
        {
          "internalType": "address",
          "name": "",
          "type": "address"
        },
        {
          "internalType": "uint256",
          "name": "",
          "type": "uint256"
        }
      ],
      "name": "_indexOfuserAllOffers",
      "outputs": [
        {
          "internalType": "uint256",
          "name": "",
          "type": "uint256"
        }
      ],
      "stateMutability": "view",
      "type": "function"
    },
    {
      "inputs": [],
      "name": "_newYear",
      "outputs": [
        {
          "internalType": "uint256",
          "name": "",
          "type": "uint256"
        }
      ],
      "stateMutability": "view",
      "type": "function"
    },
    {
      "inputs": [],
      "name": "_offerBefore",
      "outputs": [
        {
          "internalType": "uint256",
          "name": "",
          "type": "uint256"
        }
      ],
      "stateMutability": "view",
      "type": "function"
    },
    {
      "inputs": [],
      "name": "_offerPrice",
      "outputs": [
        {
          "internalType": "uint256",
          "name": "",
          "type": "uint256"
        }
      ],
      "stateMutability": "view",
      "type": "function"
    },
    {
      "inputs": [
        {
          "internalType": "address",
          "name": "",
          "type": "address"
        },
        {
          "internalType": "uint256",
          "name": "",
          "type": "uint256"
        }
      ],
      "name": "_offerdID",
      "outputs": [
        {
          "internalType": "bool",
          "name": "",
          "type": "bool"
        }
      ],
      "stateMutability": "view",
      "type": "function"
    },
    {
      "inputs": [
        {
          "internalType": "address",
          "name": "",
          "type": "address"
        },
        {
          "internalType": "uint256",
          "name": "",
          "type": "uint256"
        }
      ],
      "name": "_offers",
      "outputs": [
        {
          "internalType": "uint256",
          "name": "id",
          "type": "uint256"
        },
        {
          "internalType": "uint256",
          "name": "userID",
          "type": "uint256"
        },
        {
          "internalType": "uint256",
          "name": "Price",
          "type": "uint256"
        },
        {
          "internalType": "uint256",
          "name": "Time",
          "type": "uint256"
        },
        {
          "internalType": "uint256",
          "name": "offeredDate",
          "type": "uint256"
        },
        {
          "internalType": "address",
          "name": "User",
          "type": "address"
        },
        {
          "internalType": "address",
          "name": "Contract",
          "type": "address"
        }
      ],
      "stateMutability": "view",
      "type": "function"
    },
    {
      "inputs": [
        {
          "internalType": "address",
          "name": "newOwner",
          "type": "address"
        }
      ],
      "name": "_transferOwnership",
      "outputs": [],
      "stateMutability": "nonpayable",
      "type": "function"
    },
    {
      "inputs": [
        {
          "internalType": "address",
          "name": "contract_",
          "type": "address"
        },
        {
          "internalType": "uint256",
          "name": "id_",
          "type": "uint256"
        }
      ],
      "name": "acceptOffer",
      "outputs": [],
      "stateMutability": "nonpayable",
      "type": "function"
    },
    {
      "inputs": [
        {
          "internalType": "address",
          "name": "contract_",
          "type": "address"
        },
        {
          "internalType": "uint256",
          "name": "newYear_",
          "type": "uint256"
        }
      ],
      "name": "allBookedDates",
      "outputs": [
        {
          "components": [
            {
              "internalType": "uint256",
              "name": "_year",
              "type": "uint256"
            },
            {
              "internalType": "uint256",
              "name": "_month",
              "type": "uint256"
            },
            {
              "internalType": "uint256",
              "name": "_day",
              "type": "uint256"
            }
          ],
          "internalType": "struct Factory._bookDates[]",
          "name": "",
          "type": "tuple[]"
        }
      ],
      "stateMutability": "view",
      "type": "function"
    },
    {
      "inputs": [
        {
          "internalType": "uint256",
          "name": "year_",
          "type": "uint256"
        },
        {
          "internalType": "uint256",
          "name": "month_",
          "type": "uint256"
        },
        {
          "internalType": "uint256",
          "name": "day_",
          "type": "uint256"
        },
        {
          "internalType": "address",
          "name": "contract_",
          "type": "address"
        },
        {
          "internalType": "uint256",
          "name": "id_",
          "type": "uint256"
        }
      ],
      "name": "bookDate",
      "outputs": [],
      "stateMutability": "nonpayable",
      "type": "function"
    },
    {
      "inputs": [
        {
          "internalType": "uint256",
          "name": "tOwnership_",
          "type": "uint256"
        },
        {
          "internalType": "uint256",
          "name": "USDT_",
          "type": "uint256"
        },
        {
          "internalType": "address",
          "name": "contract_",
          "type": "address"
        }
      ],
      "name": "buyOwnership",
      "outputs": [],
      "stateMutability": "nonpayable",
      "type": "function"
    },
    {
      "inputs": [
        {
          "internalType": "address",
          "name": "contract_",
          "type": "address"
        },
        {
          "internalType": "uint256",
          "name": "id_",
          "type": "uint256"
        }
      ],
      "name": "cancelBooking",
      "outputs": [],
      "stateMutability": "nonpayable",
      "type": "function"
    },
    {
      "inputs": [
        {
          "internalType": "address",
          "name": "contract_",
          "type": "address"
        },
        {
          "internalType": "uint256",
          "name": "id_",
          "type": "uint256"
        }
      ],
      "name": "cancelOffer",
      "outputs": [],
      "stateMutability": "nonpayable",
      "type": "function"
    },
    {
      "inputs": [
        {
          "internalType": "address",
          "name": "contract_",
          "type": "address"
        },
        {
          "internalType": "uint256",
          "name": "id_",
          "type": "uint256"
        },
        {
          "internalType": "uint256",
          "name": "userID_",
          "type": "uint256"
        },
        {
          "internalType": "uint256",
          "name": "USDT_",
          "type": "uint256"
        }
      ],
      "name": "offer",
      "outputs": [],
      "stateMutability": "nonpayable",
      "type": "function"
    },
    {
      "inputs": [],
      "name": "owner",
      "outputs": [
        {
          "internalType": "address",
          "name": "",
          "type": "address"
        }
      ],
      "stateMutability": "view",
      "type": "function"
    },
    {
      "inputs": [],
      "name": "ownerFee",
      "outputs": [
        {
          "internalType": "uint256",
          "name": "",
          "type": "uint256"
        }
      ],
      "stateMutability": "view",
      "type": "function"
    },
    {
      "inputs": [
        {
          "internalType": "uint256",
          "name": "time_",
          "type": "uint256"
        }
      ],
      "name": "updateAcceptOfferBefore",
      "outputs": [],
      "stateMutability": "nonpayable",
      "type": "function"
    },
    {
      "inputs": [
        {
          "internalType": "uint256",
          "name": "time_",
          "type": "uint256"
        }
      ],
      "name": "updateBookingAfter",
      "outputs": [],
      "stateMutability": "nonpayable",
      "type": "function"
    },
    {
      "inputs": [
        {
          "internalType": "uint256",
          "name": "time_",
          "type": "uint256"
        }
      ],
      "name": "updateBookingBefore",
      "outputs": [],
      "stateMutability": "nonpayable",
      "type": "function"
    },
    {
      "inputs": [
        {
          "internalType": "uint256",
          "name": "time_",
          "type": "uint256"
        }
      ],
      "name": "updateCancelBefore",
      "outputs": [],
      "stateMutability": "nonpayable",
      "type": "function"
    },
    {
      "inputs": [
        {
          "internalType": "uint256",
          "name": "time_",
          "type": "uint256"
        }
      ],
      "name": "updateOfferBefore",
      "outputs": [],
      "stateMutability": "nonpayable",
      "type": "function"
    },
    {
      "inputs": [
        {
          "internalType": "uint256",
          "name": "amount_",
          "type": "uint256"
        }
      ],
      "name": "updateOfferPrice",
      "outputs": [],
      "stateMutability": "nonpayable",
      "type": "function"
    },
    {
      "inputs": [
        {
          "internalType": "uint256",
          "name": "_fee",
          "type": "uint256"
        }
      ],
      "name": "updateOwnerFee",
      "outputs": [],
      "stateMutability": "nonpayable",
      "type": "function"
    },
    {
      "inputs": [
        {
          "internalType": "address",
          "name": "contract_",
          "type": "address"
        },
        {
          "internalType": "address",
          "name": "user_",
          "type": "address"
        }
      ],
      "name": "userAllOffers",
      "outputs": [
        {
          "internalType": "uint256[]",
          "name": "",
          "type": "uint256[]"
        }
      ],
      "stateMutability": "view",
      "type": "function"
    },
    {
      "inputs": [],
      "name": "userArraySize",
      "outputs": [
        {
          "internalType": "uint256",
          "name": "",
          "type": "uint256"
        }
      ],
      "stateMutability": "view",
      "type": "function"
    },
    {
      "inputs": [
        {
          "internalType": "address",
          "name": "_contract",
          "type": "address"
        },
        {
          "internalType": "address",
          "name": "_user",
          "type": "address"
        }
      ],
      "name": "userArraySize",
      "outputs": [
        {
          "internalType": "bool",
          "name": "",
          "type": "bool"
        }
      ],
      "stateMutability": "view",
      "type": "function"
    },
    {
      "inputs": [
        {
          "internalType": "uint256",
          "name": "_id",
          "type": "uint256"
        }
      ],
      "name": "userKeyAtIndex",
      "outputs": [
        {
          "internalType": "address",
          "name": "",
          "type": "address"
        }
      ],
      "stateMutability": "view",
      "type": "function"
    }
  ],
  "bytecode": "0x60806040526014601055625042e06013556311e1a300601a553480156200002557600080fd5b50604051620035cb380380620035cb8339810160408190526200004891620000d8565b600080546001600160a01b031916339081178255604051909182917f8be0079c531659141344cd1fd0a4f28419497f9722a3daafe3b4186f6b6457e0908290a350600e80546001600160a01b039384166001600160a01b031991821617909155600f805492909316911617905562000110565b80516001600160a01b0381168114620000d357600080fd5b919050565b60008060408385031215620000ec57600080fd5b620000f783620000bb565b91506200010760208401620000bb565b90509250929050565b6134ab80620001206000396000f3fe608060405234801561001057600080fd5b50600436106102485760003560e01c806395cabcc71161013b578063cc95b8cc116100b8578063d5b2a01a1161007c578063d5b2a01a1461060d578063e099fdea14610616578063e12f6bf814610644578063f3e962c114610657578063f438be881461066a57600080fd5b8063cc95b8cc14610593578063cd4b17fd146105a6578063ce968be5146105d4578063d29d44ee146105e7578063d3d013a3146105fa57600080fd5b8063a2c46076116100ff578063a2c460761461053c578063b1b9e78d14610545578063b85c026114610558578063c54e44eb14610578578063c8af072a1461058b57600080fd5b806395cabcc7146104af578063978e845b146104b857806398a3bdd4146104e357806398aeec1e146105115780639cc2329c1461051957600080fd5b8063521e49f7116101c9578063895b1db31161018d578063895b1db3146104525780638da5cb5b146104655780638dad09dc146104765780638e049c53146104895780638f99a6871461049c57600080fd5b8063521e49f71461035057806356dcf158146103f35780636af836db14610406578063849608141461040f57806386ac16bc1461041857600080fd5b80632429060c116102105780632429060c146102e0578063329c19b7146102f35780633f5ffee51461031357806341b5ff721461033e5780634f9c8f301461034757600080fd5b8063058a56ac1461024d57806307f69dc7146102625780630e7221331461027557806313977bd71461029e578063228262e3146102d7575b600080fd5b61026061025b366004612dfa565b61067d565b005b610260610270366004612e26565b61099e565b610288610283366004612e3f565b6109cd565b6040516102959190612e5c565b60405180910390f35b6102c96102ac366004612dfa565b601b60209081526000928352604080842090915290825290205481565b604051908152602001610295565b6102c960115481565b6102606102ee366004612e26565b6109e1565b610306610301366004612e3f565b610a4c565b6040516102959190612ea0565b610326610321366004612e26565b610a5f565b6040516001600160a01b039091168152602001610295565b6102c9601a5481565b6102c960135481565b6103b261035e366004612dfa565b601c6020908152600092835260408084209091529082529020805460018201546002830154600384015460048501546005860154600690960154949593949293919290916001600160a01b03908116911687565b60408051978852602088019690965294860193909352606085019190915260808401526001600160a01b0390811660a08401521660c082015260e001610295565b610260610401366004612e26565b610a6c565b6102c960125481565b6102c960185481565b6102c9610426366004612ee1565b601760209081526000948552604080862082529385528385208152918452828420909152825290205481565b610260610460366004612e26565b610a9b565b6000546001600160a01b0316610326565b610260610484366004612e26565b610aca565b610260610497366004612dfa565b610af9565b6102606104aa366004612e26565b610eb1565b6102c960195481565b6102c96104c6366004612dfa565b601560209081526000928352604080842090915290825290205481565b6104f66104f1366004612dfa565b610ee0565b60408051938452602084019290925290820152606001610295565b6102c9610efe565b61052c610527366004612f1c565b610f0e565b6040519015158152602001610295565b6102c960145481565b610260610553366004612dfa565b610f41565b61056b610566366004612dfa565b611369565b6040516102959190612f55565b600e54610326906001600160a01b031681565b610306611405565b6102886105a1366004612f1c565b611411565b61052c6105b4366004612dfa565b601f60209081526000928352604080842090915290825290205460ff1681565b6102606105e2366004612e26565b61148a565b6102606105f5366004612e3f565b6114b9565b610288610608366004612f1c565b611579565b6102c960105481565b61052c610624366004612dfa565b601e60209081526000928352604080842090915290825290205460ff1681565b610260610652366004612fae565b611587565b610260610665366004612ee1565b61198b565b610260610678366004612fe7565b611df3565b6001600160a01b0382166000908152601e6020908152604080832084845290915290205460ff166106df5760405162461bcd60e51b8152602060048201526007602482015266085bd999995c9960ca1b60448201526064015b60405180910390fd5b6001600160a01b038281166000908152601c6020908152604080832085845290915290206005015433911681146107405760405162461bcd60e51b815260206004820152600560248201526410aab9b2b960d91b60448201526064016106d6565b600e546001600160a01b038481166000908152601c602090815260408083208784529091529081902060020154905163a9059cbb60e01b81528483166004820152602481019190915291169063a9059cbb906044016020604051808303816000875af11580156107b4573d6000803e3d6000fd5b505050506040513d601f19601f820116820180604052508101906107d89190613030565b506001600160a01b038084166000818152601b60209081526040808320878452825280832054938352601d825280832094861683529390529182205490919061082390600190613068565b6001600160a01b038087166000908152601d60209081526040808320938816835292905290812080549293509091839081106108615761086161307f565b6000918252602080832091909101546001600160a01b03898116808552601b8452604080862084875285528086208990558a8652808620869055908552601d845280852091891685529252912080549192508291859081106108c5576108c561307f565b60009182526020808320909101929092556001600160a01b038089168252601d83526040808320918816835292522080548061090357610903613095565b6000828152602080822083016000199081018390559092019092556001600160a01b03909716808252601c885260408083208884528952808320838155600181018490556002810184905560038101849055600481018490556005810180546001600160a01b0319908116909155600690910180549091169055908252601e8852808220968252959096525050509120805460ff1916905550565b6000546001600160a01b031633146109c85760405162461bcd60e51b81526004016106d6906130ab565b601955565b60606109da600183612302565b5092915050565b6000546001600160a01b03163314610a0b5760405162461bcd60e51b81526004016106d6906130ab565b8060105403610a475760405162461bcd60e51b815260206004820152600860248201526721616c726561647960c01b60448201526064016106d6565b601055565b6060610a5960098361237d565b92915050565b6000610a596009836123f5565b6000546001600160a01b03163314610a965760405162461bcd60e51b81526004016106d6906130ab565b601855565b6000546001600160a01b03163314610ac55760405162461bcd60e51b81526004016106d6906130ab565b601255565b6000546001600160a01b03163314610af45760405162461bcd60e51b81526004016106d6906130ab565b601a55565b610b0560018383612428565b610b3b5760405162461bcd60e51b815260206004820152600760248201526608509bdbdad95960ca1b60448201526064016106d6565b6001600160a01b038281166000908152600360209081526040808320858452909152902054163314610b7f5760405162461bcd60e51b81526004016106d6906130cb565b6000610b8d60018484612458565b50915050610ba6601454426124b390919063ffffffff16565b8111610bf45760405162461bcd60e51b815260206004820152601760248201527f43616e742043616e63656c20426f6f6b696e67204e6f7700000000000000000060448201526064016106d6565b6000806000610c02846124bf565b91945092509050610c15600187876124e5565b6001600160a01b038616600081815260176020908152604080832087845282528083208684528252808320858452825280832083905583835260158252808320898452825280832054938352601682528083206011548452909152812054610c7f90600190613068565b6001600160a01b0389166000908152601660209081526040808320601154845290915281208054929350909183908110610cbb57610cbb61307f565b600091825260208083206003909202909101546001600160a01b038c168352601682526040808420601154855290925290822080549193509084908110610d0457610d0461307f565b60009182526020808320600160039093020191909101546001600160a01b038d168352601682526040808420601154855290925290822080549193509085908110610d5157610d5161307f565b60009182526020808320600260039093020191909101546001600160a01b038e168084526015835260408085208f865284528085208590558051606081018252888152808501889052808201849052918552601684528085206011548652909352919092208054929350909187908110610dcd57610dcd61307f565b6000918252602080832084516003909302019182558381015160018301556040938401516002909201919091556001600160a01b038e168252601681528282206011548352905220805480610e2457610e24613095565b600082815260208082206003600019949094019384020182815560018101839055600201919091559155604080516001600160a01b038e1681529182018c9052810189905260608101889052608081018790527f0e11cf96cf2f1a0bc39be889b0af436012c74d99082edd0a8cf70cff7dba812b9060a00160405180910390a15050505050505050505050565b6000546001600160a01b03163314610edb5760405162461bcd60e51b81526004016106d6906130ab565b601355565b60008080610ef060018686612458565b919790965090945092505050565b6000610f0960095490565b905090565b6001600160a01b038083166000908152600d6020908152604080832093851683529290529081205460ff165b9392505050565b6001600160a01b0382166000908152601e6020908152604080832084845290915290205460ff16610f9e5760405162461bcd60e51b81526020600482015260076024820152660853d999995c9960ca1b60448201526064016106d6565b6001600160a01b038281166000908152600360209081526040808320858452909152902054163314610fe25760405162461bcd60e51b81526004016106d6906130cb565b6001600160a01b0382166000908152601c6020908152604080832084845290915290206003015442106110425760405162461bcd60e51b8152602060048201526008602482015267151a5b594813dd5d60c21b60448201526064016106d6565b60008061105160018585612458565b90935091506110649050600185856124e5565b6001600160a01b038481166000908152601c6020908152604080832087845290915290206001808201546005909201546110a793919288929091164287876126bc565b60008060006110b5856124bf565b6001600160a01b038a166000818152601c602090815260408083208d8452808352818420600180820154878752601786528487208b885286528487208a88528652848720898852865284872055958552601f84528285208f86528452918420805460ff19169095179094556010549390915260020154949750929550909350909161114c91606491611146916127c5565b906127d1565b6001600160a01b0389166000908152601c602090815260408083208b84529091528120600201549192509061118190836124b3565b600e549091506001600160a01b031663a9059cbb6111a76000546001600160a01b031690565b6040516001600160e01b031960e084901b1681526001600160a01b039091166004820152602481018590526044016020604051808303816000875af11580156111f4573d6000803e3d6000fd5b505050506040513d601f19601f820116820180604052508101906112189190613030565b50600e546001600160a01b031663a9059cbb336040516001600160e01b031960e084901b1681526001600160a01b039091166004820152602481018490526044016020604051808303816000875af1158015611278573d6000803e3d6000fd5b505050506040513d601f19601f8201168201806040525081019061129c9190613030565b506001600160a01b0389166000818152601e602090815260408083208c84528252808320805460ff19169055928252601c81528282208b8352905290812081815560018101829055600281018290556003810182905560048101919091556005810180546001600160a01b03199081169091556006909101805490911690557ffc91b30e73c0fbd4c7c733f66035982172c2596034fd662da0ce67d49b1ae5f48833604080519283526001600160a01b0390911660208301520160405180910390a1505050505050505050565b6001600160a01b03821660009081526016602090815260408083208484528252808320805482518185028101850190935280835260609492939192909184015b828210156113f957838290600052602060002090600302016040518060600160405290816000820154815260200160018201548152602001600282015481525050815260200190600101906113a9565b50505050905092915050565b6060610f0960096127dd565b6001600160a01b038083166000908152601d6020908152604080832093851683529281529082902080548351818402810184019094528084526060939283018282801561147d57602002820191906000526020600020905b815481526020019060010190808311611469575b5050505050905092915050565b6000546001600160a01b031633146114b45760405162461bcd60e51b81526004016106d6906130ab565b601455565b6000546001600160a01b031633146114e35760405162461bcd60e51b81526004016106d6906130ab565b6001600160a01b0381166115295760405162461bcd60e51b815260206004820152600d60248201526c217a65726f206164647265737360981b60448201526064016106d6565b600080546001600160a01b038381166001600160a01b0319831681178455604051919092169283917f8be0079c531659141344cd1fd0a4f28419497f9722a3daafe3b4186f6b6457e09190a35050565b6060610f3a60098484612843565b600083116115c55760405162461bcd60e51b815260206004820152600b60248201526a021744f776e6572736869760ac1b60448201526064016106d6565b600f54604051634a9cf68560e01b81526001600160a01b0383811660048301526000928392839283921690634a9cf68590602401600060405180830381865afa158015611616573d6000803e3d6000fd5b505050506040513d6000823e601f3d908101601f1916820160405261163e91908101906131be565b50965096509650965050505061165d87846128bf90919063ffffffff16565b84101561169c5760405162461bcd60e51b815260206004820152600d60248201526c21546f74616c20537570706c7960981b60448201526064016106d6565b856116a783896127c5565b146116eb5760405162461bcd60e51b815260206004820152601460248201527308539bdd081cdd59999958da595b9d081554d11560621b60448201526064016106d6565b600061170760646111466010548a6127c590919063ffffffff16565b9050600061171588836124b3565b600e549091506001600160a01b03166323b872dd3361173c6000546001600160a01b031690565b6040516001600160e01b031960e085901b1681526001600160a01b03928316600482015291166024820152604481018590526064016020604051808303816000875af1158015611790573d6000803e3d6000fd5b505050506040513d601f19601f820116820180604052508101906117b49190613030565b50600e546040516323b872dd60e01b81523360048201526001600160a01b03858116602483015260448201849052909116906323b872dd906064016020604051808303816000875af115801561180e573d6000803e3d6000fd5b505050506040513d601f19601f820116820180604052508101906118329190613030565b508660005b8a81101561197e57600f54604051635cce8d8960e11b81526001600160a01b038b81166004830152602482018e90529091169063b99d1b12906044016020604051808303816000875af1158015611892573d6000803e3d6000fd5b505050506040513d601f19601f820116820180604052508101906118b69190613030565b5060006118c3888d6128bf565b90506118d260098b33846128cb565b604051632851206560e21b8152336004820152602481018290526001600160a01b0384169063a144819490604401600060405180830381600087803b15801561191a57600080fd5b505af115801561192e573d6000803e3d6000fd5b5050604080518481523360208201527f94bf804d99f2e506274f8f54327419cf422bd9efa05b9d7afe19d8049dcab16d935001905060405180910390a150806119768161327e565b915050611837565b5050505050505050505050565b6001600160a01b0384166000908152601e6020908152604080832086845290915290205460ff16156119ea5760405162461bcd60e51b81526020600482015260086024820152671bd999995c99125160c21b60448201526064016106d6565b6000336040516370a0823160e01b81526001600160a01b0380831660048301529192508691600091908316906370a0823190602401602060405180830381865afa158015611a3c573d6000803e3d6000fd5b505050506040513d601f19601f82011682018060405250810190611a609190613297565b11611a965760405162461bcd60e51b815260206004820152600660248201526510aa37b5b2b760d11b60448201526064016106d6565b6040516331a9108f60e11b8152600481018590526001600160a01b038084169190831690636352211e90602401602060405180830381865afa158015611ae0573d6000803e3d6000fd5b505050506040513d601f19601f82011682018060405250810190611b0491906132b0565b6001600160a01b031614611b2a5760405162461bcd60e51b81526004016106d6906130cb565b611b3660018787612428565b611b6c5760405162461bcd60e51b815260206004820152600760248201526608509bdbdad95960ca1b60448201526064016106d6565b82601a541115611bac5760405162461bcd60e51b815260206004820152600b60248201526a214f66666572507269636560a81b60448201526064016106d6565b6000611bba60018888612458565b5091505042611bd4601854836124b390919063ffffffff16565b11611c0c5760405162461bcd60e51b8152602060048201526008602482015267151a5b594813dd5d60c21b60448201526064016106d6565b600e546040516323b872dd60e01b81526001600160a01b03858116600483015230602483015260448201879052909116906323b872dd906064016020604051808303816000875af1158015611c65573d6000803e3d6000fd5b505050506040513d601f19601f82011682018060405250810190611c899190613030565b506040518060e00160405280878152602001868152602001858152602001611cbc601954846124b390919063ffffffff16565b815260208082018490526001600160a01b0386811660408085018290528c831660609586018190526000818152601c86528281208e8252865282812088518155888701516001808301919091558985015160028301559789015160038201556080890151600482015560a08901516005820180549188166001600160a01b031992831617905560c0909901516006909101805491909616981697909717909355828652601d845280862082875284528086208054848852601b86528288208e895286528288208190558087018255908752848720018c9055918552601e83528185208b8652835293819020805460ff19169093179092558151898152908101929092527f29005aa0b0d185170d6a60ea4adccf9d1d0206b590b72d806a4695f9cfdb2ab1910160405180910390a150505050505050565b6040516331a9108f60e11b81526004810182905282906000906001600160a01b03831690636352211e90602401602060405180830381865afa158015611e3d573d6000803e3d6000fd5b505050506040513d601f19601f82011682018060405250810190611e6191906132b0565b9050336001600160a01b0382161480611ef557506001600160a01b03821663e985e9c582336040516001600160e01b031960e085901b1681526001600160a01b03928316600482015291166024820152604401602060405180830381865afa158015611ed1573d6000803e3d6000fd5b505050506040513d601f19601f82011682018060405250810190611ef59190613030565b611f675760405162461bcd60e51b815260206004820152603860248201527f4552433732313a20617070726f76652063616c6c6572206973206e6f74206f7760448201527f6e6572206e6f7220617070726f76656420666f7220616c6c000000000000000060648201526084016106d6565b611f728787876129f6565b611fad5760405162461bcd60e51b815260206004820152600c60248201526b696e56616c6964204461746560a01b60448201526064016106d6565b6000611fba888888612a4c565b9050600080611fcb60018888612458565b9093509150611fde905060018888612428565b15612029578083116120295760405162461bcd60e51b8152602060048201526014602482015273151bdad95b88105b1c9958591e48109bdbdad95960621b60448201526064016106d6565b82820361206e5760405162461bcd60e51b815260206004820152601360248201527211185d1948105b1c9958591e48109bdbdad959606a1b60448201526064016106d6565b6012544290849061207f90836132cd565b106120be5760405162461bcd60e51b815260206004820152600f60248201526e21626f6f6b696e67204265666f726560881b60448201526064016106d6565b83601354826120cd91906132cd565b1161210b5760405162461bcd60e51b815260206004820152600e60248201526d10b137b7b5b4b7339020b33a32b960911b60448201526064016106d6565b600061212461211b8d60016128bf565b600c601f612a4c565b90508060115411156121365760118190555b601660008a6001600160a01b03166001600160a01b03168152602001908152602001600020600084815260200190815260200160002080549050601560008b6001600160a01b03166001600160a01b0316815260200190815260200160002060008a815260200190815260200160002081905550601660008a6001600160a01b03166001600160a01b03168152602001908152602001600020600084815260200190815260200160002060405180606001604052808e81526020018d81526020018c8152509080600181540180825580915050600190039060005260206000209060030201600090919091909150600082015181600001556020820151816001015560408201518160020155505087601760008b6001600160a01b03166001600160a01b0316815260200190815260200160002060008e815260200190815260200160002060008d815260200190815260200160002060008c8152602001908152602001600020819055506122ba89896122ad3390565b6001929190868a876126bc565b6040805189815233602082015281517f2cb8e00054226b8870f22c7049c896a653ff9e8ca04b7912aecd40ecd4d09b22929181900390910190a1505050505050505050505050565b6001600160a01b03811660009081526001830160209081526040808320805482518185028101850190935280835260609493919290918390839083018282801561236b57602002820191906000526020600020905b815481526020019060010190808311612357575b50505050509150915091509250929050565b6001600160a01b038116600090815260018301602090815260409182902080548351818402810184019094528084526060939283018282801561147d57602002820191906000526020600020905b81546001600160a01b031681526001909101906020018083116123cb575050505050905092915050565b600082600001828154811061240c5761240c61307f565b6000918252602090912001546001600160a01b03169392505050565b6001600160a01b0382166000908152600784016020908152604080832084845290915290205460ff169392505050565b6001600160a01b03909116600081815260038401602090815260408083208584528252808320548484526004870183528184208685528352818420549484526005909601825280832094835293905291909120549192909190565b6000610f3a8284613068565b600080806124d86124d362015180866132fb565b612a6f565b9196909550909350915050565b6001600160a01b0382166000908152600784016020908152604080832084845290915290205460ff1661251757505050565b6001600160a01b038216600081815260078501602090815260408083208584528252808320805460ff19169055838352600287018252808320858452825280832080546001600160a01b031916905583835260038701825280832085845282528083208390558383526004870182528083208584528252808320839055838352600587018252808320858452825280832083905583835260068701825280832085845282528083205493835260018088019092528220546125d89190613068565b6001600160a01b0385166000908152600187016020526040812080549293509091839081106126095761260961307f565b6000918252602080832091909101546001600160a01b03881680845260068a0183526040808520838652845280852088905588855280852085905590845260018a01909252912080549192508291859081106126675761266761307f565b60009182526020808320909101929092556001600160a01b0387168152600188019091526040902080548061269e5761269e613095565b60019003818190600052602060002001600090559055505050505050565b6001600160a01b0386166000908152600788016020908152604080832088845290915290205460ff166127bc576001600160a01b03868116600081815260078a01602090815260408083208a845282528083208054600160ff199091168117909155848452808d018352818420805460068f0185528386208d8752855283862081905591820181558452828420018a905583835260028c0182528083208a8452825280832080546001600160a01b031916958a169590951790945582825260038b018152838220898352815283822087905582825260048b018152838220898352815283822086905591815260058a018252828120888252909152208190555b50505050505050565b6000610f3a828461330f565b6000610f3a82846132fb565b60608160000180548060200260200160405190810160405280929190818152602001828054801561283757602002820191906000526020600020905b81546001600160a01b03168152600190910190602001808311612819575b50505050509050919050565b6001600160a01b03808316600090815260028501602090815260408083209385168352928152908290208054835181840281018401909452808452606093928301828280156128b157602002820191906000526020600020905b81548152602001906001019080831161289d575b505050505090509392505050565b6000610f3a82846132cd565b6001600160a01b03808416600090815260048601602090815260408083209386168352929052205460ff161561293b576001600160a01b038084166000908152600286016020908152604080832093861683529281529181208054600181018255908252919020018190556129f0565b6001600160a01b0380841660008181526004870160209081526040808320948716808452948252808320805460ff1916600190811790915584845260028a01835281842086855283528184208054808301825590855283852001879055895485855260038b0184528285208786528452828520558981018352908320805480830182559084528284200180546001600160a01b0319908116909517905588549081018955888352912001805490911690911790555b50505050565b60006107b28410158015612a0a5750600083115b8015612a175750600c8311155b15610f3a576000612a288585612be3565b9050600083118015612a3a5750808311155b15612a4457600191505b509392505050565b600062015180612a5d858585612c69565b612a67919061330f565b949350505050565b60008080838162253d8c612a868362010bd961332e565b612a90919061332e565b9050600062023ab1612aa383600461336f565b612aad91906133f4565b90506004612abe8262023ab161336f565b612ac990600361332e565b612ad391906133f4565b612add9083613422565b9150600062164b09612af084600161332e565b612afc90610fa061336f565b612b0691906133f4565b90506004612b16826105b561336f565b612b2091906133f4565b612b2a9084613422565b612b3590601f61332e565b9250600061098f612b4785605061336f565b612b5191906133f4565b905060006050612b638361098f61336f565b612b6d91906133f4565b612b779086613422565b9050612b84600b836133f4565b9450612b9185600c61336f565b612b9c83600261332e565b612ba69190613422565b91508483612bb5603187613422565b612bc090606461336f565b612bca919061332e565b612bd4919061332e565b9a919950975095505050505050565b60008160011480612bf45750816003145b80612bff5750816005145b80612c0a5750816007145b80612c155750816008145b80612c20575081600a145b80612c2b575081600c145b15612c385750601f610a59565b81600214612c485750601e610a59565b612c5183612da6565b612c5c57601c612c5f565b601d5b60ff169392505050565b60006107b2841015612c7a57600080fd5b838383600062253d8c60046064600c612c94600e88613422565b612c9e91906133f4565b612caa8861132461332e565b612cb4919061332e565b612cbe91906133f4565b612cc990600361336f565b612cd391906133f4565b600c80612ce1600e88613422565b612ceb91906133f4565b612cf690600c61336f565b612d01600288613422565b612d0b9190613422565b612d179061016f61336f565b612d2191906133f4565b6004600c612d30600e89613422565b612d3a91906133f4565b612d46896112c061332e565b612d50919061332e565b612d5c906105b561336f565b612d6691906133f4565b612d72617d4b87613422565b612d7c919061332e565b612d86919061332e565b612d909190613422565b612d9a9190613422565b98975050505050505050565b6000612db3600483613461565b158015612dc95750612dc6606483613461565b15155b80610a595750612ddb61019083613461565b1592915050565b6001600160a01b0381168114612df757600080fd5b50565b60008060408385031215612e0d57600080fd5b8235612e1881612de2565b946020939093013593505050565b600060208284031215612e3857600080fd5b5035919050565b600060208284031215612e5157600080fd5b8135610f3a81612de2565b6020808252825182820181905260009190848201906040850190845b81811015612e9457835183529284019291840191600101612e78565b50909695505050505050565b6020808252825182820181905260009190848201906040850190845b81811015612e945783516001600160a01b031683529284019291840191600101612ebc565b60008060008060808587031215612ef757600080fd5b8435612f0281612de2565b966020860135965060408601359560600135945092505050565b60008060408385031215612f2f57600080fd5b8235612f3a81612de2565b91506020830135612f4a81612de2565b809150509250929050565b602080825282518282018190526000919060409081850190868401855b82811015612fa15781518051855286810151878601528501518585015260609093019290850190600101612f72565b5091979650505050505050565b600080600060608486031215612fc357600080fd5b83359250602084013591506040840135612fdc81612de2565b809150509250925092565b600080600080600060a08688031215612fff57600080fd5b853594506020860135935060408601359250606086013561301f81612de2565b949793965091946080013592915050565b60006020828403121561304257600080fd5b81518015158114610f3a57600080fd5b634e487b7160e01b600052601160045260246000fd5b60008282101561307a5761307a613052565b500390565b634e487b7160e01b600052603260045260246000fd5b634e487b7160e01b600052603160045260246000fd5b60208082526006908201526510b7bbb732b960d11b604082015260600190565b60208082526006908201526510a7bbb732b960d11b604082015260600190565b634e487b7160e01b600052604160045260246000fd5b600082601f83011261311257600080fd5b815167ffffffffffffffff8082111561312d5761312d6130eb565b604051601f8301601f19908116603f01168101908282118183101715613155576131556130eb565b8160405283815260209250868385880101111561317157600080fd5b600091505b838210156131935785820183015181830184015290820190613176565b838211156131a45760008385830101525b9695505050505050565b80516131b981612de2565b919050565b600080600080600080600080610100898b0312156131db57600080fd5b88519750602089015167ffffffffffffffff808211156131fa57600080fd5b6132068c838d01613101565b985060408b015191508082111561321c57600080fd5b6132288c838d01613101565b975060608b0151965060808b0151955060a08b0151945061324b60c08c016131ae565b935060e08b015191508082111561326157600080fd5b5061326e8b828c01613101565b9150509295985092959890939650565b60006001820161329057613290613052565b5060010190565b6000602082840312156132a957600080fd5b5051919050565b6000602082840312156132c257600080fd5b8151610f3a81612de2565b600082198211156132e0576132e0613052565b500190565b634e487b7160e01b600052601260045260246000fd5b60008261330a5761330a6132e5565b500490565b600081600019048311821515161561332957613329613052565b500290565b600080821280156001600160ff1b038490038513161561335057613350613052565b600160ff1b839003841281161561336957613369613052565b50500190565b60006001600160ff1b038184138284138082168684048611161561339557613395613052565b600160ff1b60008712828116878305891216156133b4576133b4613052565b600087129250878205871284841616156133d0576133d0613052565b878505871281841616156133e6576133e6613052565b505050929093029392505050565b600082613403576134036132e5565b600160ff1b82146000198414161561341d5761341d613052565b500590565b60008083128015600160ff1b85018412161561344057613440613052565b6001600160ff1b038401831381161561345b5761345b613052565b50500390565b600082613470576134706132e5565b50069056fea2646970667358221220a678e0d455d2b7217521cf5061a295efd16aa4b2be321687ca770852570a813a64736f6c634300080e0033",
  "linkReferences": {},
  "deployedLinkReferences": {}
}