{
  "_format": "hh-sol-artifact-1",
  "contractName": "Deploy",
  "sourceName": "contracts/Deploy.sol",
  "abi": [
    {
      "inputs": [],
      "stateMutability": "nonpayable",
      "type": "constructor"
    },
    {
      "anonymous": false,
      "inputs": [
        {
          "indexed": false,
          "internalType": "address",
          "name": "addr",
          "type": "address"
        }
      ],
      "name": "AlreadyWhitelistedAddressAdded",
      "type": "event"
    },
    {
      "anonymous": false,
      "inputs": [
        {
          "indexed": false,
          "internalType": "address",
          "name": "addr",
          "type": "address"
        }
      ],
      "name": "AlreadyWhitelistedAddressRemoved",
      "type": "event"
    },
    {
      "anonymous": false,
      "inputs": [
        {
          "indexed": true,
          "internalType": "address",
          "name": "previousOwner",
          "type": "address"
        },
        {
          "indexed": true,
          "internalType": "address",
          "name": "newOwner",
          "type": "address"
        }
      ],
      "name": "OwnershipTransferred",
      "type": "event"
    },
    {
      "anonymous": false,
      "inputs": [
        {
          "indexed": false,
          "internalType": "address",
          "name": "addr",
          "type": "address"
        }
      ],
      "name": "WhitelistedAddressAdded",
      "type": "event"
    },
    {
      "anonymous": false,
      "inputs": [
        {
          "indexed": false,
          "internalType": "address",
          "name": "addr",
          "type": "address"
        }
      ],
      "name": "WhitelistedAddressRemoved",
      "type": "event"
    },
    {
      "anonymous": false,
      "inputs": [
        {
          "indexed": false,
          "internalType": "address",
          "name": "_Contract",
          "type": "address"
        },
        {
          "indexed": false,
          "internalType": "uint256",
          "name": "id",
          "type": "uint256"
        }
      ],
      "name": "deploy_",
      "type": "event"
    },
    {
      "anonymous": false,
      "inputs": [
        {
          "indexed": false,
          "internalType": "address",
          "name": "oldAddress_",
          "type": "address"
        },
        {
          "indexed": false,
          "internalType": "address",
          "name": "newAddress_",
          "type": "address"
        }
      ],
      "name": "factoryAddressChanged_",
      "type": "event"
    },
    {
      "inputs": [],
      "name": "_contractCounter",
      "outputs": [
        {
          "internalType": "uint256",
          "name": "",
          "type": "uint256"
        }
      ],
      "stateMutability": "view",
      "type": "function"
    },
    {
      "inputs": [
        {
          "internalType": "address",
          "name": "newOwner",
          "type": "address"
        }
      ],
      "name": "_transferOwnership",
      "outputs": [],
      "stateMutability": "nonpayable",
      "type": "function"
    },
    {
      "inputs": [
        {
          "internalType": "address",
          "name": "addr",
          "type": "address"
        }
      ],
      "name": "addAddressToWhitelist",
      "outputs": [],
      "stateMutability": "nonpayable",
      "type": "function"
    },
    {
      "inputs": [],
      "name": "allContractAddress",
      "outputs": [
        {
          "internalType": "address[]",
          "name": "",
          "type": "address[]"
        }
      ],
      "stateMutability": "view",
      "type": "function"
    },
    {
      "inputs": [
        {
          "internalType": "address",
          "name": "contract_",
          "type": "address"
        },
        {
          "internalType": "address",
          "name": "owner_",
          "type": "address"
        }
      ],
      "name": "changeOwner",
      "outputs": [],
      "stateMutability": "nonpayable",
      "type": "function"
    },
    {
      "inputs": [
        {
          "internalType": "address",
          "name": "contract_",
          "type": "address"
        }
      ],
      "name": "contractDitals",
      "outputs": [
        {
          "internalType": "uint256",
          "name": "id",
          "type": "uint256"
        },
        {
          "internalType": "string",
          "name": "name",
          "type": "string"
        },
        {
          "internalType": "string",
          "name": "symbol",
          "type": "string"
        },
        {
          "internalType": "uint256",
          "name": "tSupply",
          "type": "uint256"
        },
        {
          "internalType": "uint256",
          "name": "tOwnership",
          "type": "uint256"
        },
        {
          "internalType": "uint256",
          "name": "price",
          "type": "uint256"
        },
        {
          "internalType": "address",
          "name": "owner",
          "type": "address"
        },
        {
          "internalType": "string",
          "name": "baseURI",
          "type": "string"
        }
      ],
      "stateMutability": "view",
      "type": "function"
    },
    {
      "inputs": [
        {
          "internalType": "string",
          "name": "name_",
          "type": "string"
        },
        {
          "internalType": "string",
          "name": "symbol_",
          "type": "string"
        },
        {
          "internalType": "uint256",
          "name": "totalSupply_",
          "type": "uint256"
        },
        {
          "internalType": "uint256",
          "name": "price_",
          "type": "uint256"
        },
        {
          "internalType": "address",
          "name": "ownerAddress_",
          "type": "address"
        },
        {
          "internalType": "string",
          "name": "baseURI_",
          "type": "string"
        }
      ],
      "name": "deploy",
      "outputs": [],
      "stateMutability": "nonpayable",
      "type": "function"
    },
    {
      "inputs": [],
      "name": "factory",
      "outputs": [
        {
          "internalType": "address",
          "name": "",
          "type": "address"
        }
      ],
      "stateMutability": "view",
      "type": "function"
    },
    {
      "inputs": [],
      "name": "owner",
      "outputs": [
        {
          "internalType": "address",
          "name": "",
          "type": "address"
        }
      ],
      "stateMutability": "view",
      "type": "function"
    },
    {
      "inputs": [
        {
          "internalType": "address",
          "name": "addr",
          "type": "address"
        }
      ],
      "name": "removeAddressFromWhitelist",
      "outputs": [],
      "stateMutability": "nonpayable",
      "type": "function"
    },
    {
      "inputs": [
        {
          "internalType": "address",
          "name": "contract_",
          "type": "address"
        },
        {
          "internalType": "string",
          "name": "baseURI_",
          "type": "string"
        }
      ],
      "name": "updateBaseURI",
      "outputs": [],
      "stateMutability": "nonpayable",
      "type": "function"
    },
    {
      "inputs": [
        {
          "internalType": "address",
          "name": "factory_",
          "type": "address"
        }
      ],
      "name": "updateFactoryAddress",
      "outputs": [],
      "stateMutability": "nonpayable",
      "type": "function"
    },
    {
      "inputs": [
        {
          "internalType": "address",
          "name": "contract_",
          "type": "address"
        },
        {
          "internalType": "uint256",
          "name": "price_",
          "type": "uint256"
        }
      ],
      "name": "updatePrice",
      "outputs": [],
      "stateMutability": "nonpayable",
      "type": "function"
    },
    {
      "inputs": [
        {
          "internalType": "address",
          "name": "contract_",
          "type": "address"
        },
        {
          "internalType": "uint256",
          "name": "number_",
          "type": "uint256"
        }
      ],
      "name": "updateTotalOwnership",
      "outputs": [
        {
          "internalType": "bool",
          "name": "",
          "type": "bool"
        }
      ],
      "stateMutability": "nonpayable",
      "type": "function"
    },
    {
      "inputs": [
        {
          "internalType": "address",
          "name": "user_",
          "type": "address"
        }
      ],
      "name": "userAllContractAddress",
      "outputs": [
        {
          "internalType": "address[]",
          "name": "",
          "type": "address[]"
        }
      ],
      "stateMutability": "view",
      "type": "function"
    },
    {
      "inputs": [
        {
          "internalType": "address",
          "name": "",
          "type": "address"
        }
      ],
      "name": "whitelist",
      "outputs": [
        {
          "internalType": "bool",
          "name": "",
          "type": "bool"
        }
      ],
      "stateMutability": "view",
      "type": "function"
    }
  ],
  "bytecode": "0x608060405234801561001057600080fd5b50600080546001600160a01b031916339081178255604051909182917f8be0079c531659141344cd1fd0a4f28419497f9722a3daafe3b4186f6b6457e0908290a3506006600255600380546001600160a01b0319169055612f73806100766000396000f3fe60806040523480156200001157600080fd5b5060043610620001155760003560e01c80638da5cb5b11620000a3578063c9fad1e2116200006e578063c9fad1e2146200027d578063d29d44ee1462000296578063ea8a9ef214620002ad578063f00d4b5d14620002c457600080fd5b80638da5cb5b14620001f55780639b19251a146200021b578063b99d1b121462000252578063c45a0155146200026957600080fd5b80634a9cf68511620000e45780634a9cf6851462000183578063551ee57014620001b05780635fbb226414620001c75780637b9417c814620001de57600080fd5b8063286dd3f5146200011a578063388fd247146200013357806344fa7a361462000162578063457972de146200016c575b600080fd5b620001316200012b36600462000e9b565b620002db565b005b6200014a6200014436600462000e9b565b620003c0565b60405162000159919062000ec0565b60405180910390f35b6200014a62000438565b620001316200017d36600462000f0f565b6200049c565b6200019a6200019436600462000e9b565b620004fe565b6040516200015998979695949392919062000f8c565b62000131620001c136600462000e9b565b62000751565b62000131620001d8366004620010b2565b620007d4565b62000131620001ef36600462000e9b565b6200084d565b6000546001600160a01b03165b6040516001600160a01b03909116815260200162000159565b620002416200022c36600462000e9b565b60016020526000908152604090205460ff1681565b604051901515815260200162000159565b620002416200026336600462000f0f565b62000928565b60035462000202906001600160a01b031681565b6200028760045481565b60405190815260200162000159565b62000131620002a736600462000e9b565b62000995565b62000131620002be36600462001106565b62000a5a565b62000131620002d5366004620011bd565b62000d55565b6000546001600160a01b03163314620003115760405162461bcd60e51b81526004016200030890620011f5565b60405180910390fd5b6001600160a01b03811660009081526001602052604090205460ff16620003685760405162461bcd60e51b815260206004820152600a60248201526977686974656c6973743f60b01b604482015260640162000308565b6001600160a01b038116600081815260016020908152604091829020805460ff1916905590519182527ff1abf01a1043b7c244d128e8595cf0c1d10743b022b03a02dffd8ca3bf729f5a91015b60405180910390a150565b6001600160a01b0381166000908152600760209081526040918290208054835181840281018401909452808452606093928301828280156200042c57602002820191906000526020600020905b81546001600160a01b031681526001909101906020018083116200040d575b50505050509050919050565b606060058054806020026020016040519081016040528092919081815260200182805480156200049257602002820191906000526020600020905b81546001600160a01b0316815260019091019060200180831162000473575b5050505050905090565b6001600160a01b03808316600090815260066020819052604090912001548391163314620004de5760405162461bcd60e51b81526004016200030890620011f5565b506001600160a01b03909116600090815260066020526040902060050155565b6001600160a01b0381166000908152600660205260408120805460019091018054919260609283928291829182918691906200053a9062001215565b80601f0160208091040260200160405190810160405280929190818152602001828054620005689062001215565b8015620005b95780601f106200058d57610100808354040283529160200191620005b9565b820191906000526020600020905b8154815290600101906020018083116200059b57829003601f168201915b505050506001600160a01b038b166000908152600660205260409020600201805492995091620005ea915062001215565b80601f0160208091040260200160405190810160405280929190818152602001828054620006189062001215565b8015620006695780601f106200063d5761010080835404028352916020019162000669565b820191906000526020600020905b8154815290600101906020018083116200064b57829003601f168201915b505050506001600160a01b038b811660009081526006602081905260409091206003810154600482015460058301549383015460079093018054979d50919b509950919750909116945091620006c0915062001215565b80601f0160208091040260200160405190810160405280929190818152602001828054620006ee9062001215565b80156200073f5780601f1062000713576101008083540402835291602001916200073f565b820191906000526020600020905b8154815290600101906020018083116200072157829003601f168201915b50505050509050919395975091939597565b6000546001600160a01b031633146200077e5760405162461bcd60e51b81526004016200030890620011f5565b600380546001600160a01b0319166001600160a01b0383169081179091556040805182815260208101929092527fbcfeb4134b5b369ce9fd992977cfd49469a11f45859b6f449b028c0387fe96769101620003b5565b6001600160a01b03808316600090815260066020819052604090912001548391163314620008165760405162461bcd60e51b81526004016200030890620011f5565b6001600160a01b03831660009081526006602090815260409091208351620008479260079092019185019062000dca565b50505050565b6000546001600160a01b031633146200087a5760405162461bcd60e51b81526004016200030890620011f5565b6001600160a01b03811660009081526001602052604090205460ff1615620008d25760405162461bcd60e51b815260206004820152600a602482015269085dda1a5d195b1a5cdd60b21b604482015260640162000308565b6001600160a01b038116600081815260016020818152604092839020805460ff191690921790915590519182527fd1bba68c128cc3f427e5831b3c6f99f480b6efa6b9e80c757768f6124158cc3f9101620003b5565b6003546000906001600160a01b03163314620009585760405162461bcd60e51b81526004016200030890620011f5565b6001600160a01b038316600090815260066020526040812060040180548492906200098590849062001267565b9091555060019150505b92915050565b6000546001600160a01b03163314620009c25760405162461bcd60e51b81526004016200030890620011f5565b6001600160a01b03811662000a0a5760405162461bcd60e51b815260206004820152600d60248201526c217a65726f206164647265737360981b604482015260640162000308565b600080546001600160a01b038381166001600160a01b0319831681178455604051919092169283917f8be0079c531659141344cd1fd0a4f28419497f9722a3daafe3b4186f6b6457e09190a35050565b3360009081526001602052604090205460ff1662000aad5760405162461bcd60e51b815260206004820152600f60248201526e1bdb9b1e55da1a5d195b1a5cdd1959608a1b604482015260640162000308565b6004805490600062000abf8362001282565b90915550506001600160a01b03821660008181526007602090815260408083205460045482519384019190915290820152606081019290925290608001604051602081830303815290604052805190602001208787600360009054906101000a90046001600160a01b03168560405162000b399062000e59565b62000b4894939291906200129e565b8190604051809103906000f590508015801562000b69573d6000803e3d6000fd5b509050604051806101000160405280600454815260200188815260200187815260200186815260200160008152602001600254600a62000baa9190620013f4565b62000bb6908762001402565b81526001600160a01b0380861660208084019190915260409283018690529084166000908152600682529190912082518155828201518051919262000c049260018501929091019062000dca565b506040820151805162000c2291600284019160209091019062000dca565b50606082015160038201556080820151600482015560a0820151600582015560c08201516006820180546001600160a01b0319166001600160a01b0390921691909117905560e0820151805162000c8491600784019160209091019062000dca565b50506005805460018181019092557f036b6384b5eca791c62761152d0c79bb0604c104a5fb6f4eb0703f3154bb3db00180546001600160a01b038086166001600160a01b03199283168117909355871660009081526007602090815260408220805495860181558252902090920180549092161790555062000d068362000368565b600454604080516001600160a01b038416815260208101929092527fe1fcef153f358dc5609e6ebc01f34342ad5538e996a39a52513366cc3fd7f8cc910160405180910390a150505050505050565b6001600160a01b0380831660009081526006602081905260409091200154839116331462000d975760405162461bcd60e51b81526004016200030890620011f5565b506001600160a01b0391821660009081526006602081905260409091200180546001600160a01b03191691909216179055565b82805462000dd89062001215565b90600052602060002090601f01602090048101928262000dfc576000855562000e47565b82601f1062000e1757805160ff191683800117855562000e47565b8280016001018555821562000e47579182015b8281111562000e4757825182559160200191906001019062000e2a565b5062000e5592915062000e67565b5090565b611b19806200142583390190565b5b8082111562000e55576000815560010162000e68565b80356001600160a01b038116811462000e9657600080fd5b919050565b60006020828403121562000eae57600080fd5b62000eb98262000e7e565b9392505050565b6020808252825182820181905260009190848201906040850190845b8181101562000f035783516001600160a01b03168352928401929184019160010162000edc565b50909695505050505050565b6000806040838503121562000f2357600080fd5b62000f2e8362000e7e565b946020939093013593505050565b6000815180845260005b8181101562000f645760208185018101518683018201520162000f46565b8181111562000f77576000602083870101525b50601f01601f19169290920160200192915050565b60006101008a835280602084015262000fa88184018b62000f3c565b9050828103604084015262000fbe818a62000f3c565b606084018990526080840188905260a084018790526001600160a01b03861660c085015283810360e0850152905062000ff8818562000f3c565b9b9a5050505050505050505050565b634e487b7160e01b600052604160045260246000fd5b600082601f8301126200102f57600080fd5b813567ffffffffffffffff808211156200104d576200104d62001007565b604051601f8301601f19908116603f0116810190828211818310171562001078576200107862001007565b816040528381528660208588010111156200109257600080fd5b836020870160208301376000602085830101528094505050505092915050565b60008060408385031215620010c657600080fd5b620010d18362000e7e565b9150602083013567ffffffffffffffff811115620010ee57600080fd5b620010fc858286016200101d565b9150509250929050565b60008060008060008060c087890312156200112057600080fd5b863567ffffffffffffffff808211156200113957600080fd5b620011478a838b016200101d565b975060208901359150808211156200115e57600080fd5b6200116c8a838b016200101d565b965060408901359550606089013594506200118a60808a0162000e7e565b935060a0890135915080821115620011a157600080fd5b50620011b089828a016200101d565b9150509295509295509295565b60008060408385031215620011d157600080fd5b620011dc8362000e7e565b9150620011ec6020840162000e7e565b90509250929050565b60208082526006908201526510b7bbb732b960d11b604082015260600190565b600181811c908216806200122a57607f821691505b6020821081036200124b57634e487b7160e01b600052602260045260246000fd5b50919050565b634e487b7160e01b600052601160045260246000fd5b600082198211156200127d576200127d62001251565b500190565b60006001820162001297576200129762001251565b5060010190565b608081526000620012b3608083018762000f3c565b8281036020840152620012c7818762000f3c565b6001600160a01b038616604085015283810360608501529050620012ec818562000f3c565b979650505050505050565b600181815b80851115620013385781600019048211156200131c576200131c62001251565b808516156200132a57918102915b93841c9390800290620012fc565b509250929050565b60008262001351575060016200098f565b8162001360575060006200098f565b81600181146200137957600281146200138457620013a4565b60019150506200098f565b60ff84111562001398576200139862001251565b50506001821b6200098f565b5060208310610133831016604e8410600b8410161715620013c9575081810a6200098f565b620013d58383620012f7565b8060001904821115620013ec57620013ec62001251565b029392505050565b600062000eb9838362001340565b60008160001904831182151516156200141f576200141f62001251565b50029056fe60c06040526005608081905264173539b7b760d91b60a090815262000028916008919062000100565b503480156200003657600080fd5b5060405162001b1938038062001b19833981016040819052620000599162000273565b81848481600090805190602001906200007492919062000100565b5080516200008a90600190602084019062000100565b5050600680546001600160a81b0319166101006001600160a01b038516908102919091179091556040519091506000907f8be0079c531659141344cd1fd0a4f28419497f9722a3daafe3b4186f6b6457e0908290a3508051620000f590600790602084019062000100565b505050505062000362565b8280546200010e9062000326565b90600052602060002090601f0160209004810192826200013257600085556200017d565b82601f106200014d57805160ff19168380011785556200017d565b828001600101855582156200017d579182015b828111156200017d57825182559160200191906001019062000160565b506200018b9291506200018f565b5090565b5b808211156200018b576000815560010162000190565b634e487b7160e01b600052604160045260246000fd5b600082601f830112620001ce57600080fd5b81516001600160401b0380821115620001eb57620001eb620001a6565b604051601f8301601f19908116603f01168101908282118183101715620002165762000216620001a6565b816040528381526020925086838588010111156200023357600080fd5b600091505b8382101562000257578582018301518183018401529082019062000238565b83821115620002695760008385830101525b9695505050505050565b600080600080608085870312156200028a57600080fd5b84516001600160401b0380821115620002a257600080fd5b620002b088838901620001bc565b95506020870151915080821115620002c757600080fd5b620002d588838901620001bc565b604088015190955091506001600160a01b0382168214620002f557600080fd5b6060870151919350808211156200030b57600080fd5b506200031a87828801620001bc565b91505092959194509250565b600181811c908216806200033b57607f821691505b6020821081036200035c57634e487b7160e01b600052602260045260246000fd5b50919050565b6117a780620003726000396000f3fe608060405234801561001057600080fd5b506004361061014d5760003560e01c806370a08231116100c3578063a22cb4651161007c578063a22cb465146102a3578063b88d4fde146102b6578063c6682862146102c9578063c87b56dd146102d1578063d29d44ee146102e4578063e985e9c5146102f757600080fd5b806370a08231146102365780638456cb59146102575780638da5cb5b1461025f578063931688cb1461027557806395d89b4114610288578063a14481941461029057600080fd5b80633232c10b116101155780633232c10b146101e25780633f4ba83a146101f557806342842e0e146101fd5780635c975abb146102105780636352211e1461021b5780636c0360eb1461022e57600080fd5b806301ffc9a71461015257806306fdde031461017a578063081812fc1461018f578063095ea7b3146101ba57806323b872dd146101cf575b600080fd5b6101656101603660046112de565b610333565b60405190151581526020015b60405180910390f35b610182610385565b604051610171919061134f565b6101a261019d366004611362565b610417565b6040516001600160a01b039091168152602001610171565b6101cd6101c8366004611397565b61043e565b005b6101cd6101dd3660046113c1565b610558565b6101cd6101f0366004611489565b610589565b6101cd6105d0565b6101cd61020b3660046113c1565b61060a565b60065460ff16610165565b6101a2610229366004611362565b610625565b610182610685565b6102496102443660046114d2565b610713565b604051908152602001610171565b6101cd610799565b60065461010090046001600160a01b03166101a2565b6101cd610283366004611489565b6107d1565b610182610814565b6101cd61029e366004611397565b610823565b6101cd6102b13660046114ed565b61085d565b6101cd6102c4366004611529565b610868565b6101826108a0565b6101826102df366004611362565b6108ad565b6101cd6102f23660046114d2565b6109a6565b6101656103053660046115a5565b6001600160a01b03918216600090815260056020908152604080832093909416825291909152205460ff1690565b60006001600160e01b031982166380ac58cd60e01b148061036457506001600160e01b03198216635b5e139f60e01b145b8061037f57506301ffc9a760e01b6001600160e01b03198316145b92915050565b606060008054610394906115d8565b80601f01602080910402602001604051908101604052809291908181526020018280546103c0906115d8565b801561040d5780601f106103e25761010080835404028352916020019161040d565b820191906000526020600020905b8154815290600101906020018083116103f057829003601f168201915b5050505050905090565b600061042282610a76565b506000908152600460205260409020546001600160a01b031690565b600061044982610625565b9050806001600160a01b0316836001600160a01b0316036104bb5760405162461bcd60e51b815260206004820152602160248201527f4552433732313a20617070726f76616c20746f2063757272656e74206f776e656044820152603960f91b60648201526084015b60405180910390fd5b336001600160a01b03821614806104d757506104d78133610305565b6105495760405162461bcd60e51b815260206004820152603e60248201527f4552433732313a20617070726f76652063616c6c6572206973206e6f7420746f60448201527f6b656e206f776e6572206e6f7220617070726f76656420666f7220616c6c000060648201526084016104b2565b6105538383610ad8565b505050565b6105623382610b46565b61057e5760405162461bcd60e51b81526004016104b290611612565b610553838383610bc5565b6006546001600160a01b036101009091041633146105b95760405162461bcd60e51b81526004016104b290611660565b80516105cc90600890602084019061122f565b5050565b6006546001600160a01b036101009091041633146106005760405162461bcd60e51b81526004016104b290611660565b610608610d6c565b565b61055383838360405180602001604052806000815250610868565b6000818152600260205260408120546001600160a01b03168061037f5760405162461bcd60e51b8152602060048201526018602482015277115490cdcc8c4e881a5b9d985b1a59081d1bdad95b88125160421b60448201526064016104b2565b60078054610692906115d8565b80601f01602080910402602001604051908101604052809291908181526020018280546106be906115d8565b801561070b5780601f106106e05761010080835404028352916020019161070b565b820191906000526020600020905b8154815290600101906020018083116106ee57829003601f168201915b505050505081565b60006001600160a01b03821661077d5760405162461bcd60e51b815260206004820152602960248201527f4552433732313a2061646472657373207a65726f206973206e6f7420612076616044820152683634b21037bbb732b960b91b60648201526084016104b2565b506001600160a01b031660009081526003602052604090205490565b6006546001600160a01b036101009091041633146107c95760405162461bcd60e51b81526004016104b290611660565b610608610dbe565b6006546001600160a01b036101009091041633146108015760405162461bcd60e51b81526004016104b290611660565b80516105cc90600790602084019061122f565b606060018054610394906115d8565b6006546001600160a01b036101009091041633146108535760405162461bcd60e51b81526004016104b290611660565b6105cc8282610dfb565b6105cc338383610e15565b6108723383610b46565b61088e5760405162461bcd60e51b81526004016104b290611612565b61089a84848484610ee3565b50505050565b60088054610692906115d8565b6000818152600260205260409020546060906001600160a01b03166109145760405162461bcd60e51b815260206004820152601b60248201527f517565727920666f72206e6f6e6578697374656e7420746f6b656e000000000060448201526064016104b2565b60078054610921906115d8565b80601f016020809104026020016040519081016040528092919081815260200182805461094d906115d8565b801561099a5780601f1061096f5761010080835404028352916020019161099a565b820191906000526020600020905b81548152906001019060200180831161097d57829003601f168201915b50505050509050919050565b6006546001600160a01b036101009091041633146109d65760405162461bcd60e51b81526004016104b290611660565b6001600160a01b038116610a1c5760405162461bcd60e51b815260206004820152600d60248201526c217a65726f206164647265737360981b60448201526064016104b2565b600680546001600160a01b03838116610100818102610100600160a81b031985161790945560405193909204169182907f8be0079c531659141344cd1fd0a4f28419497f9722a3daafe3b4186f6b6457e090600090a35050565b6000818152600260205260409020546001600160a01b0316610ad55760405162461bcd60e51b8152602060048201526018602482015277115490cdcc8c4e881a5b9d985b1a59081d1bdad95b88125160421b60448201526064016104b2565b50565b600081815260046020526040902080546001600160a01b0319166001600160a01b0384169081179091558190610b0d82610625565b6001600160a01b03167f8c5be1e5ebec7d5bd14f71427d1e84f3dd0314c0f7b2291e5b200ac8c7c3b92560405160405180910390a45050565b600080610b5283610625565b9050806001600160a01b0316846001600160a01b03161480610b9957506001600160a01b0380821660009081526005602090815260408083209388168352929052205460ff165b80610bbd5750836001600160a01b0316610bb284610417565b6001600160a01b0316145b949350505050565b826001600160a01b0316610bd882610625565b6001600160a01b031614610c3c5760405162461bcd60e51b815260206004820152602560248201527f4552433732313a207472616e736665722066726f6d20696e636f72726563742060448201526437bbb732b960d91b60648201526084016104b2565b6001600160a01b038216610c9e5760405162461bcd60e51b8152602060048201526024808201527f4552433732313a207472616e7366657220746f20746865207a65726f206164646044820152637265737360e01b60648201526084016104b2565b610ca9838383610f16565b610cb4600082610ad8565b6001600160a01b0383166000908152600360205260408120805460019290610cdd908490611696565b90915550506001600160a01b0382166000908152600360205260408120805460019290610d0b9084906116ad565b909155505060008181526002602052604080822080546001600160a01b0319166001600160a01b0386811691821790925591518493918716917fddf252ad1be2c89b69c2b068fc378daa952ba7f163c4a11628f55a4df523b3ef91a4505050565b610d74610f1e565b6006805460ff191690557f5db9ee0a495bf2e6ff9c91a7834c1ba4fdd244a5e8aa4e537bd38aeae4b073aa335b6040516001600160a01b03909116815260200160405180910390a1565b610dc6610f67565b6006805460ff191660011790557f62e78cea01bee320cd4e420270b5ea74000d11b0c9f74754ebdbfc544b05a258610da13390565b6105cc828260405180602001604052806000815250610fad565b816001600160a01b0316836001600160a01b031603610e765760405162461bcd60e51b815260206004820152601960248201527f4552433732313a20617070726f766520746f2063616c6c65720000000000000060448201526064016104b2565b6001600160a01b03838116600081815260056020908152604080832094871680845294825291829020805460ff191686151590811790915591519182527f17307eab39ab6107e8899845ad3d59bd9653f200f220920489ca2b5937696c31910160405180910390a3505050565b610eee848484610bc5565b610efa84848484610fe0565b61089a5760405162461bcd60e51b81526004016104b2906116c5565b610553610f67565b60065460ff166106085760405162461bcd60e51b815260206004820152601460248201527314185d5cd8589b194e881b9bdd081c185d5cd95960621b60448201526064016104b2565b60065460ff16156106085760405162461bcd60e51b815260206004820152601060248201526f14185d5cd8589b194e881c185d5cd95960821b60448201526064016104b2565b610fb783836110e1565b610fc46000848484610fe0565b6105535760405162461bcd60e51b81526004016104b2906116c5565b60006001600160a01b0384163b156110d657604051630a85bd0160e11b81526001600160a01b0385169063150b7a0290611024903390899088908890600401611717565b6020604051808303816000875af192505050801561105f575060408051601f3d908101601f1916820190925261105c91810190611754565b60015b6110bc573d80801561108d576040519150601f19603f3d011682016040523d82523d6000602084013e611092565b606091505b5080516000036110b45760405162461bcd60e51b81526004016104b2906116c5565b805181602001fd5b6001600160e01b031916630a85bd0160e11b149050610bbd565b506001949350505050565b6001600160a01b0382166111375760405162461bcd60e51b815260206004820181905260248201527f4552433732313a206d696e7420746f20746865207a65726f206164647265737360448201526064016104b2565b6000818152600260205260409020546001600160a01b03161561119c5760405162461bcd60e51b815260206004820152601c60248201527f4552433732313a20746f6b656e20616c7265616479206d696e7465640000000060448201526064016104b2565b6111a860008383610f16565b6001600160a01b03821660009081526003602052604081208054600192906111d19084906116ad565b909155505060008181526002602052604080822080546001600160a01b0319166001600160a01b03861690811790915590518392907fddf252ad1be2c89b69c2b068fc378daa952ba7f163c4a11628f55a4df523b3ef908290a45050565b82805461123b906115d8565b90600052602060002090601f01602090048101928261125d57600085556112a3565b82601f1061127657805160ff19168380011785556112a3565b828001600101855582156112a3579182015b828111156112a3578251825591602001919060010190611288565b506112af9291506112b3565b5090565b5b808211156112af57600081556001016112b4565b6001600160e01b031981168114610ad557600080fd5b6000602082840312156112f057600080fd5b81356112fb816112c8565b9392505050565b6000815180845260005b818110156113285760208185018101518683018201520161130c565b8181111561133a576000602083870101525b50601f01601f19169290920160200192915050565b6020815260006112fb6020830184611302565b60006020828403121561137457600080fd5b5035919050565b80356001600160a01b038116811461139257600080fd5b919050565b600080604083850312156113aa57600080fd5b6113b38361137b565b946020939093013593505050565b6000806000606084860312156113d657600080fd5b6113df8461137b565b92506113ed6020850161137b565b9150604084013590509250925092565b634e487b7160e01b600052604160045260246000fd5b600067ffffffffffffffff8084111561142e5761142e6113fd565b604051601f8501601f19908116603f01168101908282118183101715611456576114566113fd565b8160405280935085815286868601111561146f57600080fd5b858560208301376000602087830101525050509392505050565b60006020828403121561149b57600080fd5b813567ffffffffffffffff8111156114b257600080fd5b8201601f810184136114c357600080fd5b610bbd84823560208401611413565b6000602082840312156114e457600080fd5b6112fb8261137b565b6000806040838503121561150057600080fd5b6115098361137b565b91506020830135801515811461151e57600080fd5b809150509250929050565b6000806000806080858703121561153f57600080fd5b6115488561137b565b93506115566020860161137b565b925060408501359150606085013567ffffffffffffffff81111561157957600080fd5b8501601f8101871361158a57600080fd5b61159987823560208401611413565b91505092959194509250565b600080604083850312156115b857600080fd5b6115c18361137b565b91506115cf6020840161137b565b90509250929050565b600181811c908216806115ec57607f821691505b60208210810361160c57634e487b7160e01b600052602260045260246000fd5b50919050565b6020808252602e908201527f4552433732313a2063616c6c6572206973206e6f7420746f6b656e206f776e6560408201526d1c881b9bdc88185c1c1c9bdd995960921b606082015260800190565b60208082526006908201526510b7bbb732b960d11b604082015260600190565b634e487b7160e01b600052601160045260246000fd5b6000828210156116a8576116a8611680565b500390565b600082198211156116c0576116c0611680565b500190565b60208082526032908201527f4552433732313a207472616e7366657220746f206e6f6e20455243373231526560408201527131b2b4bb32b91034b6b83632b6b2b73a32b960711b606082015260800190565b6001600160a01b038581168252841660208201526040810183905260806060820181905260009061174a90830184611302565b9695505050505050565b60006020828403121561176657600080fd5b81516112fb816112c856fea2646970667358221220346c11d4da5cea52cf5d84d214452c818f4edfd487a02c2c3eec0e06b3b14bc664736f6c634300080e0033a264697066735822122080c95195ef88265fddf79823167bf8a72000dea41bafcee18ebd2b092847d9e864736f6c634300080e0033",
  "linkReferences": {},
  "deployedLinkReferences": {}
}