{
  "_format": "hh-sol-artifact-1",
  "contractName": "Boating",
  "sourceName": "contracts/DeployHandler/Boating.sol",
  "abi": [
    {
      "inputs": [
        {
          "internalType": "string",
          "name": "name_",
          "type": "string"
        },
        {
          "internalType": "string",
          "name": "symbol_",
          "type": "string"
        },
        {
          "internalType": "address",
          "name": "factoryAddress_",
          "type": "address"
        },
        {
          "internalType": "string",
          "name": "baseURI_",
          "type": "string"
        }
      ],
      "stateMutability": "nonpayable",
      "type": "constructor"
    },
    {
      "anonymous": false,
      "inputs": [
        {
          "indexed": true,
          "internalType": "address",
          "name": "owner",
          "type": "address"
        },
        {
          "indexed": true,
          "internalType": "address",
          "name": "approved",
          "type": "address"
        },
        {
          "indexed": true,
          "internalType": "uint256",
          "name": "tokenId",
          "type": "uint256"
        }
      ],
      "name": "Approval",
      "type": "event"
    },
    {
      "anonymous": false,
      "inputs": [
        {
          "indexed": true,
          "internalType": "address",
          "name": "owner",
          "type": "address"
        },
        {
          "indexed": true,
          "internalType": "address",
          "name": "operator",
          "type": "address"
        },
        {
          "indexed": false,
          "internalType": "bool",
          "name": "approved",
          "type": "bool"
        }
      ],
      "name": "ApprovalForAll",
      "type": "event"
    },
    {
      "anonymous": false,
      "inputs": [
        {
          "indexed": true,
          "internalType": "address",
          "name": "previousOwner",
          "type": "address"
        },
        {
          "indexed": true,
          "internalType": "address",
          "name": "newOwner",
          "type": "address"
        }
      ],
      "name": "OwnershipTransferred",
      "type": "event"
    },
    {
      "anonymous": false,
      "inputs": [
        {
          "indexed": false,
          "internalType": "address",
          "name": "account",
          "type": "address"
        }
      ],
      "name": "Paused",
      "type": "event"
    },
    {
      "anonymous": false,
      "inputs": [
        {
          "indexed": true,
          "internalType": "address",
          "name": "from",
          "type": "address"
        },
        {
          "indexed": true,
          "internalType": "address",
          "name": "to",
          "type": "address"
        },
        {
          "indexed": true,
          "internalType": "uint256",
          "name": "tokenId",
          "type": "uint256"
        }
      ],
      "name": "Transfer",
      "type": "event"
    },
    {
      "anonymous": false,
      "inputs": [
        {
          "indexed": false,
          "internalType": "address",
          "name": "account",
          "type": "address"
        }
      ],
      "name": "Unpaused",
      "type": "event"
    },
    {
      "inputs": [
        {
          "internalType": "address",
          "name": "newOwner",
          "type": "address"
        }
      ],
      "name": "_transferOwnership",
      "outputs": [],
      "stateMutability": "nonpayable",
      "type": "function"
    },
    {
      "inputs": [
        {
          "internalType": "address",
          "name": "to",
          "type": "address"
        },
        {
          "internalType": "uint256",
          "name": "tokenId",
          "type": "uint256"
        }
      ],
      "name": "approve",
      "outputs": [],
      "stateMutability": "nonpayable",
      "type": "function"
    },
    {
      "inputs": [
        {
          "internalType": "address",
          "name": "owner",
          "type": "address"
        }
      ],
      "name": "balanceOf",
      "outputs": [
        {
          "internalType": "uint256",
          "name": "",
          "type": "uint256"
        }
      ],
      "stateMutability": "view",
      "type": "function"
    },
    {
      "inputs": [],
      "name": "baseExtension",
      "outputs": [
        {
          "internalType": "string",
          "name": "",
          "type": "string"
        }
      ],
      "stateMutability": "view",
      "type": "function"
    },
    {
      "inputs": [],
      "name": "baseURI",
      "outputs": [
        {
          "internalType": "string",
          "name": "",
          "type": "string"
        }
      ],
      "stateMutability": "view",
      "type": "function"
    },
    {
      "inputs": [
        {
          "internalType": "uint256",
          "name": "tokenId",
          "type": "uint256"
        }
      ],
      "name": "getApproved",
      "outputs": [
        {
          "internalType": "address",
          "name": "",
          "type": "address"
        }
      ],
      "stateMutability": "view",
      "type": "function"
    },
    {
      "inputs": [
        {
          "internalType": "address",
          "name": "owner",
          "type": "address"
        },
        {
          "internalType": "address",
          "name": "operator",
          "type": "address"
        }
      ],
      "name": "isApprovedForAll",
      "outputs": [
        {
          "internalType": "bool",
          "name": "",
          "type": "bool"
        }
      ],
      "stateMutability": "view",
      "type": "function"
    },
    {
      "inputs": [],
      "name": "name",
      "outputs": [
        {
          "internalType": "string",
          "name": "",
          "type": "string"
        }
      ],
      "stateMutability": "view",
      "type": "function"
    },
    {
      "inputs": [],
      "name": "owner",
      "outputs": [
        {
          "internalType": "address",
          "name": "",
          "type": "address"
        }
      ],
      "stateMutability": "view",
      "type": "function"
    },
    {
      "inputs": [
        {
          "internalType": "uint256",
          "name": "tokenId",
          "type": "uint256"
        }
      ],
      "name": "ownerOf",
      "outputs": [
        {
          "internalType": "address",
          "name": "",
          "type": "address"
        }
      ],
      "stateMutability": "view",
      "type": "function"
    },
    {
      "inputs": [],
      "name": "pause",
      "outputs": [],
      "stateMutability": "nonpayable",
      "type": "function"
    },
    {
      "inputs": [],
      "name": "paused",
      "outputs": [
        {
          "internalType": "bool",
          "name": "",
          "type": "bool"
        }
      ],
      "stateMutability": "view",
      "type": "function"
    },
    {
      "inputs": [
        {
          "internalType": "address",
          "name": "to",
          "type": "address"
        },
        {
          "internalType": "uint256",
          "name": "tokenId",
          "type": "uint256"
        }
      ],
      "name": "safeMint",
      "outputs": [],
      "stateMutability": "nonpayable",
      "type": "function"
    },
    {
      "inputs": [
        {
          "internalType": "address",
          "name": "from",
          "type": "address"
        },
        {
          "internalType": "address",
          "name": "to",
          "type": "address"
        },
        {
          "internalType": "uint256",
          "name": "tokenId",
          "type": "uint256"
        }
      ],
      "name": "safeTransferFrom",
      "outputs": [],
      "stateMutability": "nonpayable",
      "type": "function"
    },
    {
      "inputs": [
        {
          "internalType": "address",
          "name": "from",
          "type": "address"
        },
        {
          "internalType": "address",
          "name": "to",
          "type": "address"
        },
        {
          "internalType": "uint256",
          "name": "tokenId",
          "type": "uint256"
        },
        {
          "internalType": "bytes",
          "name": "data",
          "type": "bytes"
        }
      ],
      "name": "safeTransferFrom",
      "outputs": [],
      "stateMutability": "nonpayable",
      "type": "function"
    },
    {
      "inputs": [
        {
          "internalType": "address",
          "name": "operator",
          "type": "address"
        },
        {
          "internalType": "bool",
          "name": "approved",
          "type": "bool"
        }
      ],
      "name": "setApprovalForAll",
      "outputs": [],
      "stateMutability": "nonpayable",
      "type": "function"
    },
    {
      "inputs": [
        {
          "internalType": "bytes4",
          "name": "interfaceId",
          "type": "bytes4"
        }
      ],
      "name": "supportsInterface",
      "outputs": [
        {
          "internalType": "bool",
          "name": "",
          "type": "bool"
        }
      ],
      "stateMutability": "view",
      "type": "function"
    },
    {
      "inputs": [],
      "name": "symbol",
      "outputs": [
        {
          "internalType": "string",
          "name": "",
          "type": "string"
        }
      ],
      "stateMutability": "view",
      "type": "function"
    },
    {
      "inputs": [
        {
          "internalType": "uint256",
          "name": "tokenId",
          "type": "uint256"
        }
      ],
      "name": "tokenURI",
      "outputs": [
        {
          "internalType": "string",
          "name": "",
          "type": "string"
        }
      ],
      "stateMutability": "view",
      "type": "function"
    },
    {
      "inputs": [
        {
          "internalType": "address",
          "name": "from",
          "type": "address"
        },
        {
          "internalType": "address",
          "name": "to",
          "type": "address"
        },
        {
          "internalType": "uint256",
          "name": "tokenId",
          "type": "uint256"
        }
      ],
      "name": "transferFrom",
      "outputs": [],
      "stateMutability": "nonpayable",
      "type": "function"
    },
    {
      "inputs": [],
      "name": "unpause",
      "outputs": [],
      "stateMutability": "nonpayable",
      "type": "function"
    },
    {
      "inputs": [
        {
          "internalType": "string",
          "name": "baseExtension_",
          "type": "string"
        }
      ],
      "name": "updateBaseExtension",
      "outputs": [],
      "stateMutability": "nonpayable",
      "type": "function"
    },
    {
      "inputs": [
        {
          "internalType": "string",
          "name": "symbol_",
          "type": "string"
        }
      ],
      "name": "updateBaseURI",
      "outputs": [],
      "stateMutability": "nonpayable",
      "type": "function"
    }
  ],
  "bytecode": "0x60c06040526005608081905264173539b7b760d91b60a090815262000028916008919062000100565b503480156200003657600080fd5b5060405162001b1938038062001b19833981016040819052620000599162000273565b81848481600090805190602001906200007492919062000100565b5080516200008a90600190602084019062000100565b5050600680546001600160a81b0319166101006001600160a01b038516908102919091179091556040519091506000907f8be0079c531659141344cd1fd0a4f28419497f9722a3daafe3b4186f6b6457e0908290a3508051620000f590600790602084019062000100565b505050505062000362565b8280546200010e9062000326565b90600052602060002090601f0160209004810192826200013257600085556200017d565b82601f106200014d57805160ff19168380011785556200017d565b828001600101855582156200017d579182015b828111156200017d57825182559160200191906001019062000160565b506200018b9291506200018f565b5090565b5b808211156200018b576000815560010162000190565b634e487b7160e01b600052604160045260246000fd5b600082601f830112620001ce57600080fd5b81516001600160401b0380821115620001eb57620001eb620001a6565b604051601f8301601f19908116603f01168101908282118183101715620002165762000216620001a6565b816040528381526020925086838588010111156200023357600080fd5b600091505b8382101562000257578582018301518183018401529082019062000238565b83821115620002695760008385830101525b9695505050505050565b600080600080608085870312156200028a57600080fd5b84516001600160401b0380821115620002a257600080fd5b620002b088838901620001bc565b95506020870151915080821115620002c757600080fd5b620002d588838901620001bc565b604088015190955091506001600160a01b0382168214620002f557600080fd5b6060870151919350808211156200030b57600080fd5b506200031a87828801620001bc565b91505092959194509250565b600181811c908216806200033b57607f821691505b6020821081036200035c57634e487b7160e01b600052602260045260246000fd5b50919050565b6117a780620003726000396000f3fe608060405234801561001057600080fd5b506004361061014d5760003560e01c806370a08231116100c3578063a22cb4651161007c578063a22cb465146102a3578063b88d4fde146102b6578063c6682862146102c9578063c87b56dd146102d1578063d29d44ee146102e4578063e985e9c5146102f757600080fd5b806370a08231146102365780638456cb59146102575780638da5cb5b1461025f578063931688cb1461027557806395d89b4114610288578063a14481941461029057600080fd5b80633232c10b116101155780633232c10b146101e25780633f4ba83a146101f557806342842e0e146101fd5780635c975abb146102105780636352211e1461021b5780636c0360eb1461022e57600080fd5b806301ffc9a71461015257806306fdde031461017a578063081812fc1461018f578063095ea7b3146101ba57806323b872dd146101cf575b600080fd5b6101656101603660046112de565b610333565b60405190151581526020015b60405180910390f35b610182610385565b604051610171919061134f565b6101a261019d366004611362565b610417565b6040516001600160a01b039091168152602001610171565b6101cd6101c8366004611397565b61043e565b005b6101cd6101dd3660046113c1565b610558565b6101cd6101f0366004611489565b610589565b6101cd6105d0565b6101cd61020b3660046113c1565b61060a565b60065460ff16610165565b6101a2610229366004611362565b610625565b610182610685565b6102496102443660046114d2565b610713565b604051908152602001610171565b6101cd610799565b60065461010090046001600160a01b03166101a2565b6101cd610283366004611489565b6107d1565b610182610814565b6101cd61029e366004611397565b610823565b6101cd6102b13660046114ed565b61085d565b6101cd6102c4366004611529565b610868565b6101826108a0565b6101826102df366004611362565b6108ad565b6101cd6102f23660046114d2565b6109a6565b6101656103053660046115a5565b6001600160a01b03918216600090815260056020908152604080832093909416825291909152205460ff1690565b60006001600160e01b031982166380ac58cd60e01b148061036457506001600160e01b03198216635b5e139f60e01b145b8061037f57506301ffc9a760e01b6001600160e01b03198316145b92915050565b606060008054610394906115d8565b80601f01602080910402602001604051908101604052809291908181526020018280546103c0906115d8565b801561040d5780601f106103e25761010080835404028352916020019161040d565b820191906000526020600020905b8154815290600101906020018083116103f057829003601f168201915b5050505050905090565b600061042282610a76565b506000908152600460205260409020546001600160a01b031690565b600061044982610625565b9050806001600160a01b0316836001600160a01b0316036104bb5760405162461bcd60e51b815260206004820152602160248201527f4552433732313a20617070726f76616c20746f2063757272656e74206f776e656044820152603960f91b60648201526084015b60405180910390fd5b336001600160a01b03821614806104d757506104d78133610305565b6105495760405162461bcd60e51b815260206004820152603e60248201527f4552433732313a20617070726f76652063616c6c6572206973206e6f7420746f60448201527f6b656e206f776e6572206e6f7220617070726f76656420666f7220616c6c000060648201526084016104b2565b6105538383610ad8565b505050565b6105623382610b46565b61057e5760405162461bcd60e51b81526004016104b290611612565b610553838383610bc5565b6006546001600160a01b036101009091041633146105b95760405162461bcd60e51b81526004016104b290611660565b80516105cc90600890602084019061122f565b5050565b6006546001600160a01b036101009091041633146106005760405162461bcd60e51b81526004016104b290611660565b610608610d6c565b565b61055383838360405180602001604052806000815250610868565b6000818152600260205260408120546001600160a01b03168061037f5760405162461bcd60e51b8152602060048201526018602482015277115490cdcc8c4e881a5b9d985b1a59081d1bdad95b88125160421b60448201526064016104b2565b60078054610692906115d8565b80601f01602080910402602001604051908101604052809291908181526020018280546106be906115d8565b801561070b5780601f106106e05761010080835404028352916020019161070b565b820191906000526020600020905b8154815290600101906020018083116106ee57829003601f168201915b505050505081565b60006001600160a01b03821661077d5760405162461bcd60e51b815260206004820152602960248201527f4552433732313a2061646472657373207a65726f206973206e6f7420612076616044820152683634b21037bbb732b960b91b60648201526084016104b2565b506001600160a01b031660009081526003602052604090205490565b6006546001600160a01b036101009091041633146107c95760405162461bcd60e51b81526004016104b290611660565b610608610dbe565b6006546001600160a01b036101009091041633146108015760405162461bcd60e51b81526004016104b290611660565b80516105cc90600790602084019061122f565b606060018054610394906115d8565b6006546001600160a01b036101009091041633146108535760405162461bcd60e51b81526004016104b290611660565b6105cc8282610dfb565b6105cc338383610e15565b6108723383610b46565b61088e5760405162461bcd60e51b81526004016104b290611612565b61089a84848484610ee3565b50505050565b60088054610692906115d8565b6000818152600260205260409020546060906001600160a01b03166109145760405162461bcd60e51b815260206004820152601b60248201527f517565727920666f72206e6f6e6578697374656e7420746f6b656e000000000060448201526064016104b2565b60078054610921906115d8565b80601f016020809104026020016040519081016040528092919081815260200182805461094d906115d8565b801561099a5780601f1061096f5761010080835404028352916020019161099a565b820191906000526020600020905b81548152906001019060200180831161097d57829003601f168201915b50505050509050919050565b6006546001600160a01b036101009091041633146109d65760405162461bcd60e51b81526004016104b290611660565b6001600160a01b038116610a1c5760405162461bcd60e51b815260206004820152600d60248201526c217a65726f206164647265737360981b60448201526064016104b2565b600680546001600160a01b03838116610100818102610100600160a81b031985161790945560405193909204169182907f8be0079c531659141344cd1fd0a4f28419497f9722a3daafe3b4186f6b6457e090600090a35050565b6000818152600260205260409020546001600160a01b0316610ad55760405162461bcd60e51b8152602060048201526018602482015277115490cdcc8c4e881a5b9d985b1a59081d1bdad95b88125160421b60448201526064016104b2565b50565b600081815260046020526040902080546001600160a01b0319166001600160a01b0384169081179091558190610b0d82610625565b6001600160a01b03167f8c5be1e5ebec7d5bd14f71427d1e84f3dd0314c0f7b2291e5b200ac8c7c3b92560405160405180910390a45050565b600080610b5283610625565b9050806001600160a01b0316846001600160a01b03161480610b9957506001600160a01b0380821660009081526005602090815260408083209388168352929052205460ff165b80610bbd5750836001600160a01b0316610bb284610417565b6001600160a01b0316145b949350505050565b826001600160a01b0316610bd882610625565b6001600160a01b031614610c3c5760405162461bcd60e51b815260206004820152602560248201527f4552433732313a207472616e736665722066726f6d20696e636f72726563742060448201526437bbb732b960d91b60648201526084016104b2565b6001600160a01b038216610c9e5760405162461bcd60e51b8152602060048201526024808201527f4552433732313a207472616e7366657220746f20746865207a65726f206164646044820152637265737360e01b60648201526084016104b2565b610ca9838383610f16565b610cb4600082610ad8565b6001600160a01b0383166000908152600360205260408120805460019290610cdd908490611696565b90915550506001600160a01b0382166000908152600360205260408120805460019290610d0b9084906116ad565b909155505060008181526002602052604080822080546001600160a01b0319166001600160a01b0386811691821790925591518493918716917fddf252ad1be2c89b69c2b068fc378daa952ba7f163c4a11628f55a4df523b3ef91a4505050565b610d74610f1e565b6006805460ff191690557f5db9ee0a495bf2e6ff9c91a7834c1ba4fdd244a5e8aa4e537bd38aeae4b073aa335b6040516001600160a01b03909116815260200160405180910390a1565b610dc6610f67565b6006805460ff191660011790557f62e78cea01bee320cd4e420270b5ea74000d11b0c9f74754ebdbfc544b05a258610da13390565b6105cc828260405180602001604052806000815250610fad565b816001600160a01b0316836001600160a01b031603610e765760405162461bcd60e51b815260206004820152601960248201527f4552433732313a20617070726f766520746f2063616c6c65720000000000000060448201526064016104b2565b6001600160a01b03838116600081815260056020908152604080832094871680845294825291829020805460ff191686151590811790915591519182527f17307eab39ab6107e8899845ad3d59bd9653f200f220920489ca2b5937696c31910160405180910390a3505050565b610eee848484610bc5565b610efa84848484610fe0565b61089a5760405162461bcd60e51b81526004016104b2906116c5565b610553610f67565b60065460ff166106085760405162461bcd60e51b815260206004820152601460248201527314185d5cd8589b194e881b9bdd081c185d5cd95960621b60448201526064016104b2565b60065460ff16156106085760405162461bcd60e51b815260206004820152601060248201526f14185d5cd8589b194e881c185d5cd95960821b60448201526064016104b2565b610fb783836110e1565b610fc46000848484610fe0565b6105535760405162461bcd60e51b81526004016104b2906116c5565b60006001600160a01b0384163b156110d657604051630a85bd0160e11b81526001600160a01b0385169063150b7a0290611024903390899088908890600401611717565b6020604051808303816000875af192505050801561105f575060408051601f3d908101601f1916820190925261105c91810190611754565b60015b6110bc573d80801561108d576040519150601f19603f3d011682016040523d82523d6000602084013e611092565b606091505b5080516000036110b45760405162461bcd60e51b81526004016104b2906116c5565b805181602001fd5b6001600160e01b031916630a85bd0160e11b149050610bbd565b506001949350505050565b6001600160a01b0382166111375760405162461bcd60e51b815260206004820181905260248201527f4552433732313a206d696e7420746f20746865207a65726f206164647265737360448201526064016104b2565b6000818152600260205260409020546001600160a01b03161561119c5760405162461bcd60e51b815260206004820152601c60248201527f4552433732313a20746f6b656e20616c7265616479206d696e7465640000000060448201526064016104b2565b6111a860008383610f16565b6001600160a01b03821660009081526003602052604081208054600192906111d19084906116ad565b909155505060008181526002602052604080822080546001600160a01b0319166001600160a01b03861690811790915590518392907fddf252ad1be2c89b69c2b068fc378daa952ba7f163c4a11628f55a4df523b3ef908290a45050565b82805461123b906115d8565b90600052602060002090601f01602090048101928261125d57600085556112a3565b82601f1061127657805160ff19168380011785556112a3565b828001600101855582156112a3579182015b828111156112a3578251825591602001919060010190611288565b506112af9291506112b3565b5090565b5b808211156112af57600081556001016112b4565b6001600160e01b031981168114610ad557600080fd5b6000602082840312156112f057600080fd5b81356112fb816112c8565b9392505050565b6000815180845260005b818110156113285760208185018101518683018201520161130c565b8181111561133a576000602083870101525b50601f01601f19169290920160200192915050565b6020815260006112fb6020830184611302565b60006020828403121561137457600080fd5b5035919050565b80356001600160a01b038116811461139257600080fd5b919050565b600080604083850312156113aa57600080fd5b6113b38361137b565b946020939093013593505050565b6000806000606084860312156113d657600080fd5b6113df8461137b565b92506113ed6020850161137b565b9150604084013590509250925092565b634e487b7160e01b600052604160045260246000fd5b600067ffffffffffffffff8084111561142e5761142e6113fd565b604051601f8501601f19908116603f01168101908282118183101715611456576114566113fd565b8160405280935085815286868601111561146f57600080fd5b858560208301376000602087830101525050509392505050565b60006020828403121561149b57600080fd5b813567ffffffffffffffff8111156114b257600080fd5b8201601f810184136114c357600080fd5b610bbd84823560208401611413565b6000602082840312156114e457600080fd5b6112fb8261137b565b6000806040838503121561150057600080fd5b6115098361137b565b91506020830135801515811461151e57600080fd5b809150509250929050565b6000806000806080858703121561153f57600080fd5b6115488561137b565b93506115566020860161137b565b925060408501359150606085013567ffffffffffffffff81111561157957600080fd5b8501601f8101871361158a57600080fd5b61159987823560208401611413565b91505092959194509250565b600080604083850312156115b857600080fd5b6115c18361137b565b91506115cf6020840161137b565b90509250929050565b600181811c908216806115ec57607f821691505b60208210810361160c57634e487b7160e01b600052602260045260246000fd5b50919050565b6020808252602e908201527f4552433732313a2063616c6c6572206973206e6f7420746f6b656e206f776e6560408201526d1c881b9bdc88185c1c1c9bdd995960921b606082015260800190565b60208082526006908201526510b7bbb732b960d11b604082015260600190565b634e487b7160e01b600052601160045260246000fd5b6000828210156116a8576116a8611680565b500390565b600082198211156116c0576116c0611680565b500190565b60208082526032908201527f4552433732313a207472616e7366657220746f206e6f6e20455243373231526560408201527131b2b4bb32b91034b6b83632b6b2b73a32b960711b606082015260800190565b6001600160a01b038581168252841660208201526040810183905260806060820181905260009061174a90830184611302565b9695505050505050565b60006020828403121561176657600080fd5b81516112fb816112c856fea2646970667358221220346c11d4da5cea52cf5d84d214452c818f4edfd487a02c2c3eec0e06b3b14bc664736f6c634300080e0033",
  "linkReferences": {},
  "deployedLinkReferences": {}
}